{
  "address": "0x04B5dAdd2c0D6a261bfafBc964E0cAc48585dEF3",
  "abi": [
    {
      "inputs": [
        {
          "internalType": "contract ISetToken",
          "name": "_setToken",
          "type": "address"
        },
        {
          "internalType": "contract IIndexModule",
          "name": "_indexModule",
          "type": "address"
        },
        {
          "internalType": "contract IStreamingFeeModule",
          "name": "_feeModule",
          "type": "address"
        },
        {
          "internalType": "address",
          "name": "_operator",
          "type": "address"
        },
        {
          "internalType": "address",
          "name": "_methodologist",
          "type": "address"
        },
        {
          "internalType": "uint256",
          "name": "_operatorFeeSplit",
          "type": "uint256"
        }
      ],
      "stateMutability": "nonpayable",
      "type": "constructor"
    },
    {
      "anonymous": false,
      "inputs": [
        {
          "indexed": false,
          "internalType": "uint256",
          "name": "_totalFees",
          "type": "uint256"
        },
        {
          "indexed": false,
          "internalType": "uint256",
          "name": "_operatorTake",
          "type": "uint256"
        },
        {
          "indexed": false,
          "internalType": "uint256",
          "name": "_methodologistTake",
          "type": "uint256"
        }
      ],
      "name": "FeesAccrued",
      "type": "event"
    },
    {
      "anonymous": false,
      "inputs": [
        {
          "indexed": false,
          "internalType": "bytes32",
          "name": "_upgradeHash",
          "type": "bytes32"
        }
      ],
      "name": "MutualUpgradeRegistered",
      "type": "event"
    },
    {
      "anonymous": false,
      "inputs": [
        {
          "indexed": true,
          "internalType": "address",
          "name": "previousOwner",
          "type": "address"
        },
        {
          "indexed": true,
          "internalType": "address",
          "name": "newOwner",
          "type": "address"
        }
      ],
      "name": "OwnershipTransferred",
      "type": "event"
    },
    {
      "anonymous": false,
      "inputs": [
        {
          "indexed": false,
          "internalType": "bytes32",
          "name": "_upgradeHash",
          "type": "bytes32"
        },
        {
          "indexed": false,
          "internalType": "uint256",
          "name": "_timestamp",
          "type": "uint256"
        }
      ],
      "name": "UpgradeRegistered",
      "type": "event"
    },
    {
      "inputs": [],
      "name": "accrueFeeAndDistribute",
      "outputs": [],
      "stateMutability": "nonpayable",
      "type": "function"
    },
    {
      "inputs": [
        {
          "internalType": "address",
          "name": "_module",
          "type": "address"
        }
      ],
      "name": "addModule",
      "outputs": [],
      "stateMutability": "nonpayable",
      "type": "function"
    },
    {
      "inputs": [],
      "name": "feeModule",
      "outputs": [
        {
          "internalType": "contract IStreamingFeeModule",
          "name": "",
          "type": "address"
        }
      ],
      "stateMutability": "view",
      "type": "function"
    },
    {
      "inputs": [],
      "name": "indexModule",
      "outputs": [
        {
          "internalType": "contract IIndexModule",
          "name": "",
          "type": "address"
        }
      ],
      "stateMutability": "view",
      "type": "function"
    },
    {
      "inputs": [
        {
          "internalType": "address",
          "name": "_module",
          "type": "address"
        },
        {
          "internalType": "bytes",
          "name": "_data",
          "type": "bytes"
        }
      ],
      "name": "interactModule",
      "outputs": [],
      "stateMutability": "nonpayable",
      "type": "function"
    },
    {
      "inputs": [],
      "name": "methodologist",
      "outputs": [
        {
          "internalType": "address",
          "name": "",
          "type": "address"
        }
      ],
      "stateMutability": "view",
      "type": "function"
    },
    {
      "inputs": [
        {
          "internalType": "bytes32",
          "name": "",
          "type": "bytes32"
        }
      ],
      "name": "mutualUpgrades",
      "outputs": [
        {
          "internalType": "bool",
          "name": "",
          "type": "bool"
        }
      ],
      "stateMutability": "view",
      "type": "function"
    },
    {
      "inputs": [],
      "name": "operator",
      "outputs": [
        {
          "internalType": "address",
          "name": "",
          "type": "address"
        }
      ],
      "stateMutability": "view",
      "type": "function"
    },
    {
      "inputs": [],
      "name": "operatorFeeSplit",
      "outputs": [
        {
          "internalType": "uint256",
          "name": "",
          "type": "uint256"
        }
      ],
      "stateMutability": "view",
      "type": "function"
    },
    {
      "inputs": [],
      "name": "owner",
      "outputs": [
        {
          "internalType": "address",
          "name": "",
          "type": "address"
        }
      ],
      "stateMutability": "view",
      "type": "function"
    },
    {
      "inputs": [
        {
          "internalType": "address",
          "name": "_module",
          "type": "address"
        }
      ],
      "name": "removeModule",
      "outputs": [],
      "stateMutability": "nonpayable",
      "type": "function"
    },
    {
      "inputs": [],
      "name": "renounceOwnership",
      "outputs": [],
      "stateMutability": "nonpayable",
      "type": "function"
    },
    {
      "inputs": [
        {
          "internalType": "address[]",
          "name": "_components",
          "type": "address[]"
        },
        {
          "internalType": "uint256[]",
          "name": "_exchanges",
          "type": "uint256[]"
        }
      ],
      "name": "setAssetExchanges",
      "outputs": [],
      "stateMutability": "nonpayable",
      "type": "function"
    },
    {
      "inputs": [
        {
          "internalType": "address[]",
          "name": "_components",
          "type": "address[]"
        },
        {
          "internalType": "uint256[]",
          "name": "_coolOffPeriods",
          "type": "uint256[]"
        }
      ],
      "name": "setCoolOffPeriods",
      "outputs": [],
      "stateMutability": "nonpayable",
      "type": "function"
    },
    {
      "inputs": [
        {
          "internalType": "uint256",
          "name": "_newTimeLockPeriod",
          "type": "uint256"
        }
      ],
      "name": "setTimeLockPeriod",
      "outputs": [],
      "stateMutability": "nonpayable",
      "type": "function"
    },
    {
      "inputs": [],
      "name": "setToken",
      "outputs": [
        {
          "internalType": "contract ISetToken",
          "name": "",
          "type": "address"
        }
      ],
      "stateMutability": "view",
      "type": "function"
    },
    {
      "inputs": [
        {
          "internalType": "address[]",
          "name": "_components",
          "type": "address[]"
        },
        {
          "internalType": "uint256[]",
          "name": "_tradeMaximums",
          "type": "uint256[]"
        }
      ],
      "name": "setTradeMaximums",
      "outputs": [],
      "stateMutability": "nonpayable",
      "type": "function"
    },
    {
      "inputs": [
        {
          "internalType": "address[]",
          "name": "_newComponents",
          "type": "address[]"
        },
        {
          "internalType": "uint256[]",
          "name": "_newComponentsTargetUnits",
          "type": "uint256[]"
        },
        {
          "internalType": "uint256[]",
          "name": "_oldComponentsTargetUnits",
          "type": "uint256[]"
        },
        {
          "internalType": "uint256",
          "name": "_positionMultiplier",
          "type": "uint256"
        }
      ],
      "name": "startRebalance",
      "outputs": [],
      "stateMutability": "nonpayable",
      "type": "function"
    },
    {
      "inputs": [],
      "name": "timeLockPeriod",
      "outputs": [
        {
          "internalType": "uint256",
          "name": "",
          "type": "uint256"
        }
      ],
      "stateMutability": "view",
      "type": "function"
    },
    {
      "inputs": [
        {
          "internalType": "bytes32",
          "name": "",
          "type": "bytes32"
        }
      ],
      "name": "timeLockedUpgrades",
      "outputs": [
        {
          "internalType": "uint256",
          "name": "",
          "type": "uint256"
        }
      ],
      "stateMutability": "view",
      "type": "function"
    },
    {
      "inputs": [
        {
          "internalType": "address",
          "name": "newOwner",
          "type": "address"
        }
      ],
      "name": "transferOwnership",
      "outputs": [],
      "stateMutability": "nonpayable",
      "type": "function"
    },
    {
      "inputs": [
        {
          "internalType": "bool",
          "name": "_status",
          "type": "bool"
        }
      ],
      "name": "updateAnyoneTrade",
      "outputs": [],
      "stateMutability": "nonpayable",
      "type": "function"
    },
    {
      "inputs": [
        {
          "internalType": "address",
          "name": "_newFeeRecipient",
          "type": "address"
        }
      ],
      "name": "updateFeeRecipient",
      "outputs": [],
      "stateMutability": "nonpayable",
      "type": "function"
    },
    {
      "inputs": [
        {
          "internalType": "uint256",
          "name": "_newFeeSplit",
          "type": "uint256"
        }
      ],
      "name": "updateFeeSplit",
      "outputs": [],
      "stateMutability": "nonpayable",
      "type": "function"
    },
    {
      "inputs": [
        {
          "internalType": "contract IIndexModule",
          "name": "_newIndexModule",
          "type": "address"
        }
      ],
      "name": "updateIndexModule",
      "outputs": [],
      "stateMutability": "nonpayable",
      "type": "function"
    },
    {
      "inputs": [
        {
          "internalType": "address",
          "name": "_newManager",
          "type": "address"
        }
      ],
      "name": "updateManager",
      "outputs": [],
      "stateMutability": "nonpayable",
      "type": "function"
    },
    {
      "inputs": [
        {
          "internalType": "address",
          "name": "_newMethodologist",
          "type": "address"
        }
      ],
      "name": "updateMethodologist",
      "outputs": [],
      "stateMutability": "nonpayable",
      "type": "function"
    },
    {
      "inputs": [
        {
          "internalType": "address",
          "name": "_newOperator",
          "type": "address"
        }
      ],
      "name": "updateOperator",
      "outputs": [],
      "stateMutability": "nonpayable",
      "type": "function"
    },
    {
      "inputs": [
        {
          "internalType": "uint256",
          "name": "_newFee",
          "type": "uint256"
        }
      ],
      "name": "updateStreamingFee",
      "outputs": [],
      "stateMutability": "nonpayable",
      "type": "function"
    },
    {
      "inputs": [
        {
          "internalType": "address[]",
          "name": "_traders",
          "type": "address[]"
        },
        {
          "internalType": "bool[]",
          "name": "_statuses",
          "type": "bool[]"
        }
      ],
      "name": "updateTraderStatus",
      "outputs": [],
      "stateMutability": "nonpayable",
      "type": "function"
    }
  ],
  "transactionHash": "0xc7794219384af5c3a788a8a12add0517ed7cc41bdace51d3511288051ba85773",
  "args": [
    "0x2f5817d0055f2419DD88aC4462f1b8E33dF8Ef9b",
    "0x4c4Bc2cE9044EDf5a7D8a0705EC2b8ECf165A3B8",
    "0x5BfB1d81f15163F109e96f88618e106c1a9EE824",
    "0x5409ED021D9299bf6814279A6A1411A7e866A631",
    "0x5409ED021D9299bf6814279A6A1411A7e866A631",
    "700000000000000000"
  ],
  "solcInputHash": "efbb515e5276f5b31a78149af9781428",
  "bytecode": "0x60806040523480156200001157600080fd5b50604051620028f8380380620028f8833981810160405260c08110156200003757600080fd5b508051602082015160408301516060840151608085015160a09095015193949293919290916000620000716001600160e01b036200017716565b600080546001600160a01b0319166001600160a01b0383169081178255604051929350917f8be0079c531659141344cd1fd0a4f28419497f9722a3daafe3b4186f6b6457e0908290a350620000d06200017b60201b620021631760201c565b811115620001105760405162461bcd60e51b8152600401808060200182810382526029815260200180620028cf6029913960400191505060405180910390fd5b600480546001600160a01b03199081166001600160a01b039889161790915560058054821696881696909617909555600680548616948716949094179093556007805485169286169290921790915560088054909316931692909217905560095562000187565b3390565b670de0b6b3a764000090565b61273880620001976000396000f3fe608060405234801561001057600080fd5b50600436106101da5760003560e01c806378446bc111610104578063a0632461116100a2578063e8c4268d11610071578063e8c4268d1461085d578063ed9cf58c14610883578063f160d3691461088b578063f2fde38b146108b1576101da565b8063a0632461146106fb578063ac7475ed14610721578063bae41cbf14610747578063d1da93341461074f576101da565b80638da5cb5b116100de5780638da5cb5b146106b15780639303b16f146106b95780639f53256a146106d65780639f8e67bf146106f3576101da565b806378446bc11461068457806388e4c6c81461068c5780638d3fa4e814610694576101da565b80634afdd22f1161017c5780635a41aeb21161014b5780635a41aeb2146104825780636abab3e6146105405780636d182ed6146105be578063715018a61461067c576101da565b80634afdd22f146103775780634e36245914610435578063570ca7351461045457806358aba00f1461045c576101da565b8063287ada37116101b8578063287ada371461025c57806337187c4d14610280578063389f15321461033e578063456919a81461036f576101da565b80631766486d146101df57806317d647bc1461020e5780631ed86f1914610236575b600080fd5b6101fc600480360360208110156101f557600080fd5b50356108d7565b60408051918252519081900360200190f35b6102346004803603602081101561022457600080fd5b50356001600160a01b03166108e9565b005b6102346004803603602081101561024c57600080fd5b50356001600160a01b031661095d565b610264610a1c565b604080516001600160a01b039092168252519081900360200190f35b6102346004803603604081101561029657600080fd5b810190602081018135600160201b8111156102b057600080fd5b8201836020820111156102c257600080fd5b803590602001918460208302840111600160201b831117156102e357600080fd5b919390929091602081019035600160201b81111561030057600080fd5b82018360208201111561031257600080fd5b803590602001918460208302840111600160201b8311171561033357600080fd5b509092509050610a2b565b61035b6004803603602081101561035457600080fd5b5035610b48565b604080519115158252519081900360200190f35b610234610b5d565b6102346004803603604081101561038d57600080fd5b810190602081018135600160201b8111156103a757600080fd5b8201836020820111156103b957600080fd5b803590602001918460208302840111600160201b831117156103da57600080fd5b919390929091602081019035600160201b8111156103f757600080fd5b82018360208201111561040957600080fd5b803590602001918460208302840111600160201b8311171561042a57600080fd5b509092509050610dc3565b6102346004803603602081101561044b57600080fd5b50351515610ec2565b610264610f62565b6102346004803603602081101561047257600080fd5b50356001600160a01b0316610f71565b6102346004803603604081101561049857600080fd5b810190602081018135600160201b8111156104b257600080fd5b8201836020820111156104c457600080fd5b803590602001918460208302840111600160201b831117156104e557600080fd5b919390929091602081019035600160201b81111561050257600080fd5b82018360208201111561051457600080fd5b803590602001918460208302840111600160201b8311171561053557600080fd5b509092509050611167565b6102346004803603604081101561055657600080fd5b6001600160a01b038235169190810190604081016020820135600160201b81111561058057600080fd5b82018360208201111561059257600080fd5b803590602001918460018302840111600160201b831117156105b357600080fd5b509092509050611266565b610234600480360360408110156105d457600080fd5b810190602081018135600160201b8111156105ee57600080fd5b82018360208201111561060057600080fd5b803590602001918460208302840111600160201b8311171561062157600080fd5b919390929091602081019035600160201b81111561063e57600080fd5b82018360208201111561065057600080fd5b803590602001918460208302840111600160201b8311171561067157600080fd5b50909250905061136a565b610234611469565b6101fc61151d565b6101fc611523565b610234600480360360208110156106aa57600080fd5b5035611529565b61026461170f565b610234600480360360208110156106cf57600080fd5b503561171e565b610234600480360360208110156106ec57600080fd5b50356118b2565b610264611b54565b6102346004803603602081101561071157600080fd5b50356001600160a01b0316611b63565b6102346004803603602081101561073757600080fd5b50356001600160a01b0316611c07565b610264611c7b565b6102346004803603608081101561076557600080fd5b810190602081018135600160201b81111561077f57600080fd5b82018360208201111561079157600080fd5b803590602001918460208302840111600160201b831117156107b257600080fd5b919390929091602081019035600160201b8111156107cf57600080fd5b8201836020820111156107e157600080fd5b803590602001918460208302840111600160201b8311171561080257600080fd5b919390929091602081019035600160201b81111561081f57600080fd5b82018360208201111561083157600080fd5b803590602001918460208302840111600160201b8311171561085257600080fd5b919350915035611c8a565b6102346004803603602081101561087357600080fd5b50356001600160a01b0316611def565b610264611e68565b610234600480360360208110156108a157600080fd5b50356001600160a01b0316611e77565b610234600480360360208110156108c757600080fd5b50356001600160a01b0316612059565b60026020526000908152604090205481565b6007546001600160a01b0316331461093b576040805162461bcd60e51b815260206004820152601060248201526f26bab9ba1031329037b832b930ba37b960811b604482015290519081900360640190fd5b600580546001600160a01b0319166001600160a01b0392909216919091179055565b6007546001600160a01b031633146109af576040805162461bcd60e51b815260206004820152601060248201526f26bab9ba1031329037b832b930ba37b960811b604482015290519081900360640190fd5b6004805460408051631ed86f1960e01b81526001600160a01b038581169482019490945290519290911691631ed86f199160248082019260009290919082900301818387803b158015610a0157600080fd5b505af1158015610a15573d6000803e3d6000fd5b5050505050565b6005546001600160a01b031681565b6007546001600160a01b03163314610a7d576040805162461bcd60e51b815260206004820152601060248201526f26bab9ba1031329037b832b930ba37b960811b604482015290519081900360640190fd5b60055460408051634438589160e01b815260048101918252604481018690526001600160a01b039092169163443858919187918791879187919081906024810190606401876020880280828437600083820152601f01601f19169091018481038352858152602090810191508690860280828437600081840152601f19601f8201169050808301925050509650505050505050600060405180830381600087803b158015610b2a57600080fd5b505af1158015610b3e573d6000803e3d6000fd5b5050505050505050565b60036020526000908152604090205460ff1681565b6006546004805460408051632f3eec4960e01b81526001600160a01b039283169381019390935251921691632f3eec499160248082019260009290919082900301818387803b158015610baf57600080fd5b505af1158015610bc3573d6000803e3d6000fd5b505060048054604080516370a0823160e01b8152309381019390935251600094506001600160a01b0390911692506370a0823191602480820192602092909190829003018186803b158015610c1757600080fd5b505afa158015610c2b573d6000803e3d6000fd5b505050506040513d6020811015610c4157600080fd5b5051600954909150600090610c5d90839063ffffffff61216f16565b90506000610c71838363ffffffff6121a216565b600480546007546040805163a9059cbb60e01b81526001600160a01b03928316948101949094526024840187905251939450169163a9059cbb916044808201926020929091908290030181600087803b158015610ccd57600080fd5b505af1158015610ce1573d6000803e3d6000fd5b505050506040513d6020811015610cf757600080fd5b5050600480546008546040805163a9059cbb60e01b81526001600160a01b0392831694810194909452602484018590525191169163a9059cbb9160448083019260209291908290030181600087803b158015610d5257600080fd5b505af1158015610d66573d6000803e3d6000fd5b505050506040513d6020811015610d7c57600080fd5b5050604080518481526020810184905280820183905290517f3f0efd667efe2a4e661231bb42b65ce017c3326fb50d12aa6f936500d58c1c029181900360600190a1505050565b6007546001600160a01b03163314610e15576040805162461bcd60e51b815260206004820152601060248201526f26bab9ba1031329037b832b930ba37b960811b604482015290519081900360640190fd5b60055460408051634afdd22f60e01b815260048101918252604481018690526001600160a01b0390921691634afdd22f9187918791879187919081906024810190606401876020880280828437600083820152601f01601f19169091018481038352858152602090810191508690860280828437600081840152601f19601f8201169050808301925050509650505050505050600060405180830381600087803b158015610b2a57600080fd5b6007546001600160a01b03163314610f14576040805162461bcd60e51b815260206004820152601060248201526f26bab9ba1031329037b832b930ba37b960811b604482015290519081900360640190fd5b60055460408051634e36245960e01b8152831515600482015290516001600160a01b0390921691634e3624599160248082019260009290919082900301818387803b158015610a0157600080fd5b6007546001600160a01b031681565b6007546008546001600160a01b03918216911633821480610f9a5750336001600160a01b038216145b610fe8576040805162461bcd60e51b815260206004820152601a6024820152794d75737420626520617574686f72697a6564206164647265737360301b604482015290519081900360640190fd5b6000610ff483836121e4565b905060008036836040516020018084848082843760609490941b6001600160601b0319169190930190815260408051808303600b190181526014909201815281516020928301206000818152600390935291205490955060ff1693506110e792505050576000803633604051602001808484808284376001600160601b031960609590951b949094169190930190815260408051600b198184030181526014830180835281516020928301206000818152600390935291839020805460ff19166001179055819052905190965060008051602061263f8339815191529550908190036034019350915050a1505050611162565b600081815260036020526040808220805460ff1916905560048054825163d0ebdbe760e01b81526001600160a01b038a811693820193909352925191169263d0ebdbe7926024808201939182900301818387803b15801561114757600080fd5b505af115801561115b573d6000803e3d6000fd5b5050505050505b505050565b6007546001600160a01b031633146111b9576040805162461bcd60e51b815260206004820152601060248201526f26bab9ba1031329037b832b930ba37b960811b604482015290519081900360640190fd5b60055460408051632d20d75960e11b815260048101918252604481018690526001600160a01b0390921691635a41aeb29187918791879187919081906024810190606401876020880280828437600083820152601f01601f19169091018481038352858152602090810191508690860280828437600081840152601f19601f8201169050808301925050509650505050505050600060405180830381600087803b158015610b2a57600080fd5b6007546001600160a01b031633146112b8576040805162461bcd60e51b815260206004820152601060248201526f26bab9ba1031329037b832b930ba37b960811b604482015290519081900360640190fd5b6006546001600160a01b0384811691161415611314576040805162461bcd60e51b81526020600482015260166024820152754d757374206e6f7420626520666565206d6f64756c6560501b604482015290519081900360640190fd5b61136482828080601f01602080910402602001604051908101604052809392919081815260200183838082843760009201829052506001600160a01b03891694935091505063ffffffff61220216565b50505050565b6007546001600160a01b031633146113bc576040805162461bcd60e51b815260206004820152601060248201526f26bab9ba1031329037b832b930ba37b960811b604482015290519081900360640190fd5b6005546040805163368c176b60e11b815260048101918252604481018690526001600160a01b0390921691636d182ed69187918791879187919081906024810190606401876020880280828437600083820152601f01601f19169091018481038352858152602090810191508690860280828437600081840152601f19601f8201169050808301925050509650505050505050600060405180830381600087803b158015610b2a57600080fd5b611471612232565b6000546001600160a01b039081169116146114d3576040805162461bcd60e51b815260206004820181905260248201527f4f776e61626c653a2063616c6c6572206973206e6f7420746865206f776e6572604482015290519081900360640190fd5b600080546040516001600160a01b03909116907f8be0079c531659141344cd1fd0a4f28419497f9722a3daafe3b4186f6b6457e0908390a3600080546001600160a01b0319169055565b60015481565b60095481565b6007546008546001600160a01b039182169116338214806115525750336001600160a01b038216145b6115a0576040805162461bcd60e51b815260206004820152601a6024820152794d75737420626520617574686f72697a6564206164647265737360301b604482015290519081900360640190fd5b60006115ac83836121e4565b905060008036836040516020018084848082843760609490941b6001600160601b0319169190930190815260408051808303600b190181526014909201815281516020928301206000818152600390935291205490955060ff16935061169f92505050576000803633604051602001808484808284376001600160601b031960609590951b949094169190930190815260408051600b198184030181526014830180835281516020928301206000818152600390935291839020805460ff19166001179055819052905190965060008051602061263f8339815191529550908190036034019350915050a1505050611162565b6000818152600360205260409020805460ff191690556116bd612163565b8511156116fb5760405162461bcd60e51b81526004018080602001828103825260298152602001806125f06029913960400191505060405180910390fd5b611703610b5d565b50506009839055505050565b6000546001600160a01b031690565b6007546008546001600160a01b039182169116338214806117475750336001600160a01b038216145b611795576040805162461bcd60e51b815260206004820152601a6024820152794d75737420626520617574686f72697a6564206164647265737360301b604482015290519081900360640190fd5b60006117a183836121e4565b905060008036836040516020018084848082843760609490941b6001600160601b0319169190930190815260408051808303600b190181526014909201815281516020928301206000818152600390935291205490955060ff16935061189492505050576000803633604051602001808484808284376001600160601b031960609590951b949094169190930190815260408051600b198184030181526014830180835281516020928301206000818152600390935291839020805460ff19166001179055819052905190965060008051602061263f8339815191529550908190036034019350915050a1505050611162565b6000908152600360205260409020805460ff19169055505050600155565b600154611986576008546001600160a01b03163314611910576040805162461bcd60e51b8152602060048201526015602482015274135d5cdd081899481b595d1a1bd91bdb1bd9da5cdd605a1b604482015290519081900360640190fd5b60065460048054604080516322e59fef60e11b81526001600160a01b039283169381019390935260248301859052519216916345cb3fde9160448082019260009290919082900301818387803b15801561196957600080fd5b505af115801561197d573d6000803e3d6000fd5b50505050611b51565b60008036604051602001808383808284376040805191909301818103601f1901825283528051602091820120600081815260029092529290205491955090935050508115159050611a2557600082815260026020908152604091829020429081905582518581529182015281517f0e0905d1a972d476e353bdcc3e06b19a71709054c8ba01eccb7e0691eca6d374929181900390910190a15050611b51565b600154611a3990829063ffffffff61223616565b421015611a775760405162461bcd60e51b81526004018080602001828103825260348152602001806126cf6034913960400191505060405180910390fd5b6000828152600260205260408120556008546001600160a01b03163314611add576040805162461bcd60e51b8152602060048201526015602482015274135d5cdd081899481b595d1a1bd91bdb1bd9da5cdd605a1b604482015290519081900360640190fd5b60065460048054604080516322e59fef60e11b81526001600160a01b039283169381019390935260248301879052519216916345cb3fde9160448082019260009290919082900301818387803b158015611b3657600080fd5b505af1158015611b4a573d6000803e3d6000fd5b5050505050505b50565b6008546001600160a01b031681565b6007546001600160a01b03163314611bb5576040805162461bcd60e51b815260206004820152601060248201526f26bab9ba1031329037b832b930ba37b960811b604482015290519081900360640190fd5b600480546040805163a063246160e01b81526001600160a01b03858116948201949094529051929091169163a06324619160248082019260009290919082900301818387803b158015610a0157600080fd5b6007546001600160a01b03163314611c59576040805162461bcd60e51b815260206004820152601060248201526f26bab9ba1031329037b832b930ba37b960811b604482015290519081900360640190fd5b600780546001600160a01b0319166001600160a01b0392909216919091179055565b6006546001600160a01b031681565b6007546001600160a01b03163314611cdc576040805162461bcd60e51b815260206004820152601060248201526f26bab9ba1031329037b832b930ba37b960811b604482015290519081900360640190fd5b600560009054906101000a90046001600160a01b03166001600160a01b031663d1da9334888888888888886040518863ffffffff1660e01b81526004018080602001806020018060200185815260200184810384528b8b82818152602001925060200280828437600083820152601f01601f19169091018581038452898152602090810191508a908a0280828437600083820152601f01601f19169091018581038352878152602090810191508890880280828437600081840152601f19601f8201169050808301925050509a5050505050505050505050600060405180830381600087803b158015611dce57600080fd5b505af1158015611de2573d6000803e3d6000fd5b5050505050505050505050565b6008546001600160a01b03163314611e46576040805162461bcd60e51b8152602060048201526015602482015274135d5cdd081899481b595d1a1bd91bdb1bd9da5cdd605a1b604482015290519081900360640190fd5b600880546001600160a01b0319166001600160a01b0392909216919091179055565b6004546001600160a01b031681565b6007546008546001600160a01b03918216911633821480611ea05750336001600160a01b038216145b611eee576040805162461bcd60e51b815260206004820152601a6024820152794d75737420626520617574686f72697a6564206164647265737360301b604482015290519081900360640190fd5b6000611efa83836121e4565b905060008036836040516020018084848082843760609490941b6001600160601b0319169190930190815260408051808303600b190181526014909201815281516020928301206000818152600390935291205490955060ff169350611fed92505050576000803633604051602001808484808284376001600160601b031960609590951b949094169190930190815260408051600b198184030181526014830180835281516020928301206000818152600390935291839020805460ff19166001179055819052905190965060008051602061263f8339815191529550908190036034019350915050a1505050611162565b600081815260036020526040808220805460ff19169055600654600480548351635d98c37360e01b81526001600160a01b0391821692810192909252898116602483015292519290911692635d98c3739260448084019382900301818387803b15801561114757600080fd5b612061612232565b6000546001600160a01b039081169116146120c3576040805162461bcd60e51b815260206004820181905260248201527f4f776e61626c653a2063616c6c6572206973206e6f7420746865206f776e6572604482015290519081900360640190fd5b6001600160a01b0381166121085760405162461bcd60e51b81526004018080602001828103825260268152602001806126196026913960400191505060405180910390fd5b600080546040516001600160a01b03808516939216917f8be0079c531659141344cd1fd0a4f28419497f9722a3daafe3b4186f6b6457e091a3600080546001600160a01b0319166001600160a01b0392909216919091179055565b670de0b6b3a764000090565b6000612199670de0b6b3a764000061218d858563ffffffff61229016565b9063ffffffff6122e916565b90505b92915050565b600061219983836040518060400160405280601e81526020017f536166654d6174683a207375627472616374696f6e206f766572666c6f77000081525061232b565b6000336001600160a01b038416146121fc5782612199565b50919050565b6060612228848484604051806060016040528060298152602001612685602991396123c2565b90505b9392505050565b3390565b600082820183811015612199576040805162461bcd60e51b815260206004820152601b60248201527f536166654d6174683a206164646974696f6e206f766572666c6f770000000000604482015290519081900360640190fd5b60008261229f5750600061219c565b828202828482816122ac57fe5b04146121995760405162461bcd60e51b81526004018080602001828103825260218152602001806126ae6021913960400191505060405180910390fd5b600061219983836040518060400160405280601a81526020017f536166654d6174683a206469766973696f6e206279207a65726f00000000000081525061251e565b600081848411156123ba5760405162461bcd60e51b81526004018080602001828103825283818151815260200191508051906020019080838360005b8381101561237f578181015183820152602001612367565b50505050905090810190601f1680156123ac5780820380516001836020036101000a031916815260200191505b509250505060405180910390fd5b505050900390565b6060824710156124035760405162461bcd60e51b815260040180806020018281038252602681526020018061265f6026913960400191505060405180910390fd5b61240c85612583565b61245d576040805162461bcd60e51b815260206004820152601d60248201527f416464726573733a2063616c6c20746f206e6f6e2d636f6e7472616374000000604482015290519081900360640190fd5b60006060866001600160a01b031685876040518082805190602001908083835b6020831061249c5780518252601f19909201916020918201910161247d565b6001836020036101000a03801982511681845116808217855250505050505090500191505060006040518083038185875af1925050503d80600081146124fe576040519150601f19603f3d011682016040523d82523d6000602084013e612503565b606091505b5091509150612513828286612589565b979650505050505050565b6000818361256d5760405162461bcd60e51b815260206004820181815283516024840152835190928392604490910191908501908083836000831561237f578181015183820152602001612367565b50600083858161257957fe5b0495945050505050565b3b151590565b6060831561259857508161222b565b8251156125a85782518084602001fd5b60405162461bcd60e51b815260206004820181815284516024840152845185939192839260440191908501908083836000831561237f57818101518382015260200161236756fe4f70657261746f72204665652053706c6974206d757374206265206c657373207468616e20316531384f776e61626c653a206e6577206f776e657220697320746865207a65726f20616464726573732d8be207af2fa24175b649fe62755a7b86fb6cb82c6efbd96de7447196d652ff416464726573733a20696e73756666696369656e742062616c616e636520666f722063616c6c416464726573733a206c6f772d6c6576656c2063616c6c20776974682076616c7565206661696c6564536166654d6174683a206d756c7469706c69636174696f6e206f766572666c6f7754696d654c6f636b557067726164653a2054696d65206c6f636b20706572696f64206d757374206861766520656c61707365642ea26469706673582212203080ec260b55571629ceadb8b7f8d271884bd8c7ea3b92372192b0fcaac12fdb64736f6c634300060a00334f70657261746f72204665652053706c6974206d757374206265206c657373207468616e2031653138",
  "devdoc": {
    "methods": {
      "addModule(address)": {
        "params": {
          "_module": "New module to add"
        }
      },
      "interactModule(address,bytes)": {
        "params": {
          "_data": "Byte data of function to call in module",
          "_module": "Module to interact with"
        }
      },
      "owner()": {
        "details": "Returns the address of the current owner."
      },
      "removeModule(address)": {
        "params": {
          "_module": "Module to remove"
        }
      },
      "renounceOwnership()": {
        "details": "Leaves the contract without owner. It will not be possible to call `onlyOwner` functions anymore. Can only be called by the current owner. NOTE: Renouncing ownership will leave the contract without an owner, thereby removing any functionality that is only available to the owner."
      },
      "setAssetExchanges(address[],uint256[])": {
        "params": {
          "_components": "Array of components",
          "_exchanges": "Array of exchanges mapping to correct component, uint256 used to signify exchange"
        }
      },
      "setCoolOffPeriods(address[],uint256[])": {
        "params": {
          "_components": "Array of components",
          "_coolOffPeriods": "Array of cool off periods to correct component"
        }
      },
      "setTimeLockPeriod(uint256)": {
        "params": {
          "_newTimeLockPeriod": "New timelock period in seconds"
        }
      },
      "setTradeMaximums(address[],uint256[])": {
        "params": {
          "_components": "Array of components",
          "_tradeMaximums": "Array of trade maximums mapping to correct component"
        }
      },
      "startRebalance(address[],uint256[],uint256[],uint256)": {
        "params": {
          "_newComponents": "Array of new components to add to allocation",
          "_newComponentsTargetUnits": "Array of target units at end of rebalance for new components, maps to same index of component",
          "_oldComponentsTargetUnits": "Array of target units at end of rebalance for old component, maps to same index of component,                                              if component being removed set to 0.",
          "_positionMultiplier": "Position multiplier when target units were calculated, needed in order to adjust target units                                              if fees accrued"
        }
      },
      "transferOwnership(address)": {
        "details": "Transfers ownership of the contract to a new account (`newOwner`). Can only be called by the current owner."
      },
      "updateAnyoneTrade(bool)": {
        "params": {
          "_status": "Boolean indicating if anyone can trade"
        }
      },
      "updateFeeRecipient(address)": {
        "params": {
          "_newFeeRecipient": "New fee recipient address"
        }
      },
      "updateFeeSplit(uint256)": {
        "params": {
          "_newFeeSplit": "New fee split percentage"
        }
      },
      "updateIndexModule(address)": {
        "params": {
          "_newIndexModule": "New index module"
        }
      },
      "updateManager(address)": {
        "params": {
          "_newManager": "New manager address"
        }
      },
      "updateMethodologist(address)": {
        "params": {
          "_newMethodologist": "New methodologist address"
        }
      },
      "updateOperator(address)": {
        "params": {
          "_newOperator": "New operator address"
        }
      },
      "updateStreamingFee(uint256)": {
        "params": {
          "_newFee": "New streaming fee percentage"
        }
      },
      "updateTraderStatus(address[],bool[])": {
        "params": {
          "_statuses": "Booleans indicating if matching trader can trade",
          "_traders": "Array trader addresses to toggle status"
        }
      }
    }
  },
  "userdoc": {
    "methods": {
      "accrueFeeAndDistribute()": {
        "notice": "Accrue fees from streaming fee module and transfer tokens to operator / methodologist addresses based on fee split"
      },
      "addModule(address)": {
        "notice": "OPERATOR ONLY: Add a new module to the SetToken."
      },
      "interactModule(address,bytes)": {
        "notice": "OPERATOR ONLY: Interact with a module registered on the SetToken. Cannot be used to call functions in the fee module, due to ability to bypass methodologist permissions to update streaming fee."
      },
      "removeModule(address)": {
        "notice": "OPERATOR ONLY: Remove a new module from the SetToken."
      },
      "setAssetExchanges(address[],uint256[])": {
        "notice": "OPERATOR ONLY: Set exchange for passed components"
      },
      "setCoolOffPeriods(address[],uint256[])": {
        "notice": "OPERATOR ONLY: Set exchange for passed components"
      },
      "setTimeLockPeriod(uint256)": {
        "notice": "OPERATOR OR METHODOLOGIST ONLY: Update the timelock period for updating the streaming fee percentage. Operator and Methodologist must each call this function to execute the update."
      },
      "setTradeMaximums(address[],uint256[])": {
        "notice": "OPERATOR ONLY: Set trade maximums for passed components"
      },
      "startRebalance(address[],uint256[],uint256[],uint256)": {
        "notice": "OPERATOR ONLY: Start rebalance in IndexModule. Set new target units, zeroing out any units for components being removed from index. Log position multiplier to adjust target units in case fees are accrued."
      },
      "updateAnyoneTrade(bool)": {
        "notice": "OPERATOR ONLY: Toggle whether anyone can trade, bypassing the traderAllowList"
      },
      "updateFeeRecipient(address)": {
        "notice": "OPERATOR OR METHODOLOGIST ONLY: Update the fee recipient address. Operator and Methodologist must each call this function to execute the update."
      },
      "updateFeeSplit(uint256)": {
        "notice": "OPERATOR OR METHODOLOGIST ONLY: Update the fee split percentage. Operator and Methodologist must each call this function to execute the update."
      },
      "updateIndexModule(address)": {
        "notice": "OPERATOR ONLY: Update the index module"
      },
      "updateManager(address)": {
        "notice": "OPERATOR OR METHODOLOGIST ONLY: Update the SetToken manager address. Operator and Methodologist must each call this function to execute the update."
      },
      "updateMethodologist(address)": {
        "notice": "METHODOLOGIST ONLY: Update the methodologist address"
      },
      "updateOperator(address)": {
        "notice": "OPERATOR ONLY: Update the operator address"
      },
      "updateStreamingFee(uint256)": {
        "notice": "METHODOLOGIST ONLY: Update the streaming fee for the SetToken. Subject to timelock period agreed upon by the operator and methodologist"
      },
      "updateTraderStatus(address[],bool[])": {
        "notice": "OPERATOR ONLY: Toggle ability for passed addresses to trade from current state "
      }
    }
  },
  "storageLayout": {
    "storage": [
      {
        "astId": 30,
        "contract": "contracts/manager/ICManager.sol:ICManager",
        "label": "_owner",
        "offset": 0,
        "slot": "0",
        "type": "t_address"
      },
      {
        "astId": 9196,
        "contract": "contracts/manager/ICManager.sol:ICManager",
        "label": "timeLockPeriod",
        "offset": 0,
        "slot": "1",
        "type": "t_uint256"
      },
      {
        "astId": 9200,
        "contract": "contracts/manager/ICManager.sol:ICManager",
        "label": "timeLockedUpgrades",
        "offset": 0,
        "slot": "2",
        "type": "t_mapping(t_bytes32,t_uint256)"
      },
      {
        "astId": 8705,
        "contract": "contracts/manager/ICManager.sol:ICManager",
        "label": "mutualUpgrades",
        "offset": 0,
        "slot": "3",
        "type": "t_mapping(t_bytes32,t_bool)"
      },
      {
        "astId": 9672,
        "contract": "contracts/manager/ICManager.sol:ICManager",
        "label": "setToken",
        "offset": 0,
        "slot": "4",
        "type": "t_contract(ISetToken)7685"
      },
      {
        "astId": 9674,
        "contract": "contracts/manager/ICManager.sol:ICManager",
        "label": "indexModule",
        "offset": 0,
        "slot": "5",
        "type": "t_contract(IIndexModule)7339"
      },
      {
        "astId": 9676,
        "contract": "contracts/manager/ICManager.sol:ICManager",
        "label": "feeModule",
        "offset": 0,
        "slot": "6",
        "type": "t_contract(IStreamingFeeModule)7717"
      },
      {
        "astId": 9678,
        "contract": "contracts/manager/ICManager.sol:ICManager",
        "label": "operator",
        "offset": 0,
        "slot": "7",
        "type": "t_address"
      },
      {
        "astId": 9680,
        "contract": "contracts/manager/ICManager.sol:ICManager",
        "label": "methodologist",
        "offset": 0,
        "slot": "8",
        "type": "t_address"
      },
      {
        "astId": 9682,
        "contract": "contracts/manager/ICManager.sol:ICManager",
        "label": "operatorFeeSplit",
        "offset": 0,
        "slot": "9",
        "type": "t_uint256"
      }
    ],
    "types": {
      "t_address": {
        "encoding": "inplace",
        "label": "address",
        "numberOfBytes": "20"
      },
      "t_bool": {
        "encoding": "inplace",
        "label": "bool",
        "numberOfBytes": "1"
      },
      "t_bytes32": {
        "encoding": "inplace",
        "label": "bytes32",
        "numberOfBytes": "32"
      },
      "t_contract(IIndexModule)7339": {
        "encoding": "inplace",
        "label": "contract IIndexModule",
        "numberOfBytes": "20"
      },
      "t_contract(ISetToken)7685": {
        "encoding": "inplace",
        "label": "contract ISetToken",
        "numberOfBytes": "20"
      },
      "t_contract(IStreamingFeeModule)7717": {
        "encoding": "inplace",
        "label": "contract IStreamingFeeModule",
        "numberOfBytes": "20"
      },
      "t_mapping(t_bytes32,t_bool)": {
        "encoding": "mapping",
        "key": "t_bytes32",
        "label": "mapping(bytes32 => bool)",
        "numberOfBytes": "32",
        "value": "t_bool"
      },
      "t_mapping(t_bytes32,t_uint256)": {
        "encoding": "mapping",
        "key": "t_bytes32",
        "label": "mapping(bytes32 => uint256)",
        "numberOfBytes": "32",
        "value": "t_uint256"
      },
      "t_uint256": {
        "encoding": "inplace",
        "label": "uint256",
        "numberOfBytes": "32"
      }
    }
  }
}