{
  "address": "0xDF689f19dC8B4659Ce54387e449c7388b48411d3",
  "abi": [
    {
      "inputs": [
        {
          "internalType": "contract ISetToken",
          "name": "_setToken",
          "type": "address"
        },
        {
          "internalType": "address",
          "name": "_operator",
          "type": "address"
        },
        {
          "internalType": "address",
          "name": "_methodologist",
          "type": "address"
        },
        {
          "internalType": "address[]",
          "name": "_adapters",
          "type": "address[]"
        }
      ],
      "stateMutability": "nonpayable",
      "type": "constructor"
    },
    {
      "anonymous": false,
      "inputs": [
        {
          "indexed": false,
          "internalType": "address",
          "name": "_adapter",
          "type": "address"
        }
      ],
      "name": "AdapterAdded",
      "type": "event"
    },
    {
      "anonymous": false,
      "inputs": [
        {
          "indexed": false,
          "internalType": "address",
          "name": "_adapter",
          "type": "address"
        }
      ],
      "name": "AdapterRemoved",
      "type": "event"
    },
    {
      "anonymous": false,
      "inputs": [
        {
          "indexed": false,
          "internalType": "address",
          "name": "_oldMethodologist",
          "type": "address"
        },
        {
          "indexed": false,
          "internalType": "address",
          "name": "_newMethodologist",
          "type": "address"
        }
      ],
      "name": "MethodologistChanged",
      "type": "event"
    },
    {
      "anonymous": false,
      "inputs": [
        {
          "indexed": false,
          "internalType": "bytes32",
          "name": "_upgradeHash",
          "type": "bytes32"
        }
      ],
      "name": "MutualUpgradeRegistered",
      "type": "event"
    },
    {
      "anonymous": false,
      "inputs": [
        {
          "indexed": false,
          "internalType": "address",
          "name": "_oldOperator",
          "type": "address"
        },
        {
          "indexed": false,
          "internalType": "address",
          "name": "_newOperator",
          "type": "address"
        }
      ],
      "name": "OperatorChanged",
      "type": "event"
    },
    {
      "inputs": [
        {
          "internalType": "address",
          "name": "_adapter",
          "type": "address"
        }
      ],
      "name": "addAdapter",
      "outputs": [],
      "stateMutability": "nonpayable",
      "type": "function"
    },
    {
      "inputs": [
        {
          "internalType": "address",
          "name": "_module",
          "type": "address"
        }
      ],
      "name": "addModule",
      "outputs": [],
      "stateMutability": "nonpayable",
      "type": "function"
    },
    {
      "inputs": [],
      "name": "getAdapters",
      "outputs": [
        {
          "internalType": "address[]",
          "name": "",
          "type": "address[]"
        }
      ],
      "stateMutability": "view",
      "type": "function"
    },
    {
      "inputs": [
        {
          "internalType": "address",
          "name": "_module",
          "type": "address"
        },
        {
          "internalType": "bytes",
          "name": "_data",
          "type": "bytes"
        }
      ],
      "name": "interactModule",
      "outputs": [],
      "stateMutability": "nonpayable",
      "type": "function"
    },
    {
      "inputs": [
        {
          "internalType": "address",
          "name": "",
          "type": "address"
        }
      ],
      "name": "isAdapter",
      "outputs": [
        {
          "internalType": "bool",
          "name": "",
          "type": "bool"
        }
      ],
      "stateMutability": "view",
      "type": "function"
    },
    {
      "inputs": [],
      "name": "methodologist",
      "outputs": [
        {
          "internalType": "address",
          "name": "",
          "type": "address"
        }
      ],
      "stateMutability": "view",
      "type": "function"
    },
    {
      "inputs": [
        {
          "internalType": "bytes32",
          "name": "",
          "type": "bytes32"
        }
      ],
      "name": "mutualUpgrades",
      "outputs": [
        {
          "internalType": "bool",
          "name": "",
          "type": "bool"
        }
      ],
      "stateMutability": "view",
      "type": "function"
    },
    {
      "inputs": [],
      "name": "operator",
      "outputs": [
        {
          "internalType": "address",
          "name": "",
          "type": "address"
        }
      ],
      "stateMutability": "view",
      "type": "function"
    },
    {
      "inputs": [
        {
          "internalType": "address",
          "name": "_adapter",
          "type": "address"
        }
      ],
      "name": "removeAdapter",
      "outputs": [],
      "stateMutability": "nonpayable",
      "type": "function"
    },
    {
      "inputs": [
        {
          "internalType": "address",
          "name": "_module",
          "type": "address"
        }
      ],
      "name": "removeModule",
      "outputs": [],
      "stateMutability": "nonpayable",
      "type": "function"
    },
    {
      "inputs": [
        {
          "internalType": "address",
          "name": "_newManager",
          "type": "address"
        }
      ],
      "name": "setManager",
      "outputs": [],
      "stateMutability": "nonpayable",
      "type": "function"
    },
    {
      "inputs": [
        {
          "internalType": "address",
          "name": "_newMethodologist",
          "type": "address"
        }
      ],
      "name": "setMethodologist",
      "outputs": [],
      "stateMutability": "nonpayable",
      "type": "function"
    },
    {
      "inputs": [
        {
          "internalType": "address",
          "name": "_newOperator",
          "type": "address"
        }
      ],
      "name": "setOperator",
      "outputs": [],
      "stateMutability": "nonpayable",
      "type": "function"
    },
    {
      "inputs": [],
      "name": "setToken",
      "outputs": [
        {
          "internalType": "contract ISetToken",
          "name": "",
          "type": "address"
        }
      ],
      "stateMutability": "view",
      "type": "function"
    }
  ],
  "transactionHash": "0xe37b8b6affce7ceb30094d4cee906d968a72b19017d6f17dc4afd80f4463c2f5",
  "args": [
    "0x674693d00d2A3161E1274669a252805afB104b85",
    "0x69Bdb276A17Dd90F9D3A545944CCB20E593ae8E3",
    "0x69Bdb276A17Dd90F9D3A545944CCB20E593ae8E3",
    []
  ],
  "solcInputHash": "0bbfe742aa9ae68c98f1b46eec70d410",
  "bytecode": "0x60806040523480156200001157600080fd5b506040516200178738038062001787833981810160405260808110156200003757600080fd5b8151602083015160408085015160608601805192519496939591949391820192846401000000008211156200006b57600080fd5b9083019060208201858111156200008157600080fd5b82518660208202830111640100000000821117156200009f57600080fd5b82525081516020918201928201910280838360005b83811015620000ce578181015183820152602001620000b4565b50505050919091016040525050600180546001600160a01b038089166001600160a01b03199283161790925560048054888416908316179055600580549287169290911691909117905550600090505b81518110156200020157600360008383815181106200013957fe5b6020908102919091018101516001600160a01b031682528101919091526040016000205460ff1615620001b3576040805162461bcd60e51b815260206004820152601660248201527f4164617074657220616c72656164792065786973747300000000000000000000604482015290519081900360640190fd5b600160036000848481518110620001c657fe5b6020908102919091018101516001600160a01b03168252810191909152604001600020805460ff19169115159190911790556001016200011e565b5080516200021790600290602084019062000222565b5050505050620002b6565b8280548282559060005260206000209081019282156200027a579160200282015b828111156200027a57825182546001600160a01b0319166001600160a01b0390911617825560209092019160019091019062000243565b50620002889291506200028c565b5090565b620002b391905b80821115620002885780546001600160a01b031916815560010162000293565b90565b6114c180620002c66000396000f3fe608060405234801561001057600080fd5b50600436106100ea5760003560e01c80636abab3e61161008c578063b3ab15fb11610066578063b3ab15fb146102b2578063b82e16e3146102d8578063d0ebdbe714610330578063ed9cf58c14610356576100ea565b80636abab3e6146102045780639f8e67bf14610284578063a06324611461028c576100ea565b8063585cd34b116100c8578063585cd34b1461016c57806360d54d4114610192578063660db484146101b857806368c18beb146101de576100ea565b80631ed86f19146100ef578063389f153214610117578063570ca73514610148575b600080fd5b6101156004803603602081101561010557600080fd5b50356001600160a01b031661035e565b005b6101346004803603602081101561012d57600080fd5b5035610419565b604080519115158252519081900360200190f35b61015061042e565b604080516001600160a01b039092168252519081900360200190f35b6101156004803603602081101561018257600080fd5b50356001600160a01b031661043d565b610115600480360360208110156101a857600080fd5b50356001600160a01b031661071a565b610115600480360360208110156101ce57600080fd5b50356001600160a01b03166109b9565b610134600480360360208110156101f457600080fd5b50356001600160a01b0316610a7a565b6101156004803603604081101561021a57600080fd5b6001600160a01b03823516919081019060408101602082013564010000000081111561024557600080fd5b82018360208201111561025757600080fd5b8035906020019184600183028401116401000000008311171561027957600080fd5b509092509050610a8f565b610150610b3b565b610115600480360360208110156102a257600080fd5b50356001600160a01b0316610b4a565b610115600480360360208110156102c857600080fd5b50356001600160a01b0316610bea565b6102e0610ca6565b60408051602080825283518183015283519192839290830191858101910280838360005b8381101561031c578181015183820152602001610304565b505050509050019250505060405180910390f35b6101156004803603602081101561034657600080fd5b50356001600160a01b0316610d09565b610150610f0c565b6004546001600160a01b031633146103b0576040805162461bcd60e51b815260206004820152601060248201526f26bab9ba1031329037b832b930ba37b960811b604482015290519081900360640190fd5b60015460408051631ed86f1960e01b81526001600160a01b03848116600483015291519190921691631ed86f1991602480830192600092919082900301818387803b1580156103fe57600080fd5b505af1158015610412573d6000803e3d6000fd5b5050505050565b60006020819052908152604090205460ff1681565b6004546001600160a01b031681565b6004546005546001600160a01b039182169116338214806104665750336001600160a01b038216145b6104b4576040805162461bcd60e51b815260206004820152601a6024820152794d75737420626520617574686f72697a6564206164647265737360301b604482015290519081900360640190fd5b60006104c08383610f1b565b905060008036836040516020018084848082843760609490941b6001600160601b0319169190930190815260408051808303600b1901815260149092018152815160209283012060008181529283905291205490955060ff1693506105c392505050576000803633604051602001808484808284376001600160601b031960609590951b949094169190930190815260408051600b1981840301815260148301808352815160209283012060008181529283905291839020805460ff1916600117905581905290519096507f2d8be207af2fa24175b649fe62755a7b86fb6cb82c6efbd96de7447196d652ff9550908190036034019350915050a1505050610715565b600081815260208181526040808320805460ff191690556001600160a01b0388168352600390915290205460ff1661063b576040805162461bcd60e51b81526020600482015260166024820152751059185c1d195c88191bd95cc81b9bdd08195e1a5cdd60521b604482015290519081900360640190fd5b6106a885600280548060200260200160405190810160405280929190818152602001828054801561069557602002820191906000526020600020905b81546001600160a01b03168152600190910190602001808311610677575b5050505050610f3e90919063ffffffff16565b80516106bc916002916020909101906113b3565b506001600160a01b038516600081815260036020908152604091829020805460ff19169055815192835290517fdf980d21d8c7bb34800e668dbe003299093bac8e693614151d3c57f73f98a93d9281900390910190a150505b505050565b6004546005546001600160a01b039182169116338214806107435750336001600160a01b038216145b610791576040805162461bcd60e51b815260206004820152601a6024820152794d75737420626520617574686f72697a6564206164647265737360301b604482015290519081900360640190fd5b600061079d8383610f1b565b905060008036836040516020018084848082843760609490941b6001600160601b0319169190930190815260408051808303600b1901815260149092018152815160209283012060008181529283905291205490955060ff1693506108a092505050576000803633604051602001808484808284376001600160601b031960609590951b949094169190930190815260408051600b1981840301815260148301808352815160209283012060008181529283905291839020805460ff1916600117905581905290519096507f2d8be207af2fa24175b649fe62755a7b86fb6cb82c6efbd96de7447196d652ff9550908190036034019350915050a1505050610715565b600081815260208181526040808320805460ff191690556001600160a01b0388168352600390915290205460ff1615610919576040805162461bcd60e51b81526020600482015260166024820152754164617074657220616c72656164792065786973747360501b604482015290519081900360640190fd5b6002805460018082019092557f405787fa12a823e0f2b7631cc41b3ba8828b3321ca811111fa75cd3aa3bb5ace0180546001600160a01b0319166001600160a01b038816908117909155600081815260036020908152604091829020805460ff19169094179093558051918252517fcf9c2c7f9adbb156bd76affb04df84595f8f5e69cab2e61221b05b05a902fa26929181900390910190a15050505050565b6005546001600160a01b03163314610a10576040805162461bcd60e51b8152602060048201526015602482015274135d5cdd081899481b595d1a1bd91bdb1bd9da5cdd605a1b604482015290519081900360640190fd5b600554604080516001600160a01b039283168152918316602083015280517fa744ece5192366887e454b5cc9ca9d970cf0ac3341003e0c91e9d30a570bae939281900390910190a1600580546001600160a01b0319166001600160a01b0392909216919091179055565b60036020526000908152604090205460ff1681565b3360009081526003602052604090205460ff16610ae5576040805162461bcd60e51b815260206004820152600f60248201526e26bab9ba1031329030b230b83a32b960891b604482015290519081900360640190fd5b610b3582828080601f01602080910402602001604051908101604052809392919081815260200183838082843760009201829052506001600160a01b03891694935091505063ffffffff610fb316565b50505050565b6005546001600160a01b031681565b6004546001600160a01b03163314610b9c576040805162461bcd60e51b815260206004820152601060248201526f26bab9ba1031329037b832b930ba37b960811b604482015290519081900360640190fd5b6001546040805163a063246160e01b81526001600160a01b0384811660048301529151919092169163a063246191602480830192600092919082900301818387803b1580156103fe57600080fd5b6004546001600160a01b03163314610c3c576040805162461bcd60e51b815260206004820152601060248201526f26bab9ba1031329037b832b930ba37b960811b604482015290519081900360640190fd5b600454604080516001600160a01b039283168152918316602083015280517fd58299b712891143e76310d5e664c4203c940a67db37cf856bdaa3c5c76a802c9281900390910190a1600480546001600160a01b0319166001600160a01b0392909216919091179055565b60606002805480602002602001604051908101604052809291908181526020018280548015610cfe57602002820191906000526020600020905b81546001600160a01b03168152600190910190602001808311610ce0575b505050505090505b90565b6004546005546001600160a01b03918216911633821480610d325750336001600160a01b038216145b610d80576040805162461bcd60e51b815260206004820152601a6024820152794d75737420626520617574686f72697a6564206164647265737360301b604482015290519081900360640190fd5b6000610d8c8383610f1b565b905060008036836040516020018084848082843760609490941b6001600160601b0319169190930190815260408051808303600b1901815260149092018152815160209283012060008181529283905291205490955060ff169350610e8f92505050576000803633604051602001808484808284376001600160601b031960609590951b949094169190930190815260408051600b1981840301815260148301808352815160209283012060008181529283905291839020805460ff1916600117905581905290519096507f2d8be207af2fa24175b649fe62755a7b86fb6cb82c6efbd96de7447196d652ff9550908190036034019350915050a1505050610715565b600081815260208190526040808220805460ff19169055600154815163d0ebdbe760e01b81526001600160a01b0389811660048301529251929091169263d0ebdbe79260248084019382900301818387803b158015610eed57600080fd5b505af1158015610f01573d6000803e3d6000fd5b505050505050505050565b6001546001600160a01b031681565b6000336001600160a01b03841614610f335782610f35565b815b90505b92915050565b6060600080610f4d8585610fe3565b9150915080610f9b576040805162461bcd60e51b815260206004820152601560248201527420b2323932b9b9903737ba1034b71030b93930bc9760591b604482015290519081900360640190fd5b6060610fa78684611049565b509350610f3892505050565b6060610fd9848484604051806060016040528060298152602001611463602991396111ad565b90505b9392505050565b81516000908190815b8181101561103657846001600160a01b031686828151811061100a57fe5b60200260200101516001600160a01b0316141561102e579250600191506110429050565b600101610fec565b50600019600092509250505b9250929050565b81516060906000908084106110a5576040805162461bcd60e51b815260206004820152601860248201527f496e646578206d757374206265203c2041206c656e6774680000000000000000604482015290519081900360640190fd5b60606001820367ffffffffffffffff811180156110c157600080fd5b506040519080825280602002602001820160405280156110eb578160200160208202803683370190505b50905060005b858110156111395786818151811061110557fe5b602002602001015182828151811061111957fe5b6001600160a01b03909216602092830291909101909101526001016110f1565b50600185015b8281101561118a5786818151811061115357fe5b602002602001015182600183038151811061116a57fe5b6001600160a01b039092166020928302919091019091015260010161113f565b508086868151811061119857fe5b60200260200101519350935050509250929050565b6060824710156111ee5760405162461bcd60e51b815260040180806020018281038252602681526020018061143d6026913960400191505060405180910390fd5b6111f785611309565b611248576040805162461bcd60e51b815260206004820152601d60248201527f416464726573733a2063616c6c20746f206e6f6e2d636f6e7472616374000000604482015290519081900360640190fd5b60006060866001600160a01b031685876040518082805190602001908083835b602083106112875780518252601f199092019160209182019101611268565b6001836020036101000a03801982511681845116808217855250505050505090500191505060006040518083038185875af1925050503d80600081146112e9576040519150601f19603f3d011682016040523d82523d6000602084013e6112ee565b606091505b50915091506112fe82828661130f565b979650505050505050565b3b151590565b6060831561131e575081610fdc565b82511561132e5782518084602001fd5b8160405162461bcd60e51b81526004018080602001828103825283818151815260200191508051906020019080838360005b83811015611378578181015183820152602001611360565b50505050905090810190601f1680156113a55780820380516001836020036101000a031916815260200191505b509250505060405180910390fd5b828054828255906000526020600020908101928215611408579160200282015b8281111561140857825182546001600160a01b0319166001600160a01b039091161782556020909201916001909101906113d3565b50611414929150611418565b5090565b610d0691905b808211156114145780546001600160a01b031916815560010161141e56fe416464726573733a20696e73756666696369656e742062616c616e636520666f722063616c6c416464726573733a206c6f772d6c6576656c2063616c6c20776974682076616c7565206661696c6564a2646970667358221220036d3c00a1016f0e16f975cd7e74c169d95a1704a31755c5a6b14111a06d1e7964736f6c634300060a0033",
  "devdoc": {
    "author": "Set Protocol Smart contract manager that contains permissions and admin functionality",
    "methods": {
      "addAdapter(address)": {
        "params": {
          "_adapter": "New adapter to add"
        }
      },
      "addModule(address)": {
        "params": {
          "_module": "New module to add"
        }
      },
      "interactModule(address,bytes)": {
        "params": {
          "_data": "Byte data of function to call in module",
          "_module": "Module to interact with"
        }
      },
      "removeAdapter(address)": {
        "params": {
          "_adapter": "Old adapter to remove"
        }
      },
      "removeModule(address)": {
        "params": {
          "_module": "Module to remove"
        }
      },
      "setManager(address)": {
        "params": {
          "_newManager": "New manager address"
        }
      },
      "setMethodologist(address)": {
        "params": {
          "_newMethodologist": "New methodologist address"
        }
      },
      "setOperator(address)": {
        "params": {
          "_newOperator": "New operator address"
        }
      }
    },
    "title": "ICManagerV2"
  },
  "userdoc": {
    "methods": {
      "addAdapter(address)": {
        "notice": "MUTUAL UPGRADE: Add a new adapter that the ICManagerV2 can call."
      },
      "addModule(address)": {
        "notice": "OPERATOR ONLY: Add a new module to the SetToken."
      },
      "interactModule(address,bytes)": {
        "notice": "ADAPTER ONLY: Interact with a module registered on the SetToken."
      },
      "removeAdapter(address)": {
        "notice": "MUTUAL UPGRADE: Remove an existing adapter tracked by the ICManagerV2."
      },
      "removeModule(address)": {
        "notice": "OPERATOR ONLY: Remove a new module from the SetToken."
      },
      "setManager(address)": {
        "notice": "MUTUAL UPGRADE: Update the SetToken manager address. Operator and Methodologist must each call this function to execute the update."
      },
      "setMethodologist(address)": {
        "notice": "METHODOLOGIST ONLY: Update the methodologist address"
      },
      "setOperator(address)": {
        "notice": "OPERATOR ONLY: Update the operator address"
      }
    }
  },
  "storageLayout": {
    "storage": [
      {
        "astId": 4636,
        "contract": "contracts/manager/ICManagerV2.sol:ICManagerV2",
        "label": "mutualUpgrades",
        "offset": 0,
        "slot": "0",
        "type": "t_mapping(t_bytes32,t_bool)"
      },
      {
        "astId": 5801,
        "contract": "contracts/manager/ICManagerV2.sol:ICManagerV2",
        "label": "setToken",
        "offset": 0,
        "slot": "1",
        "type": "t_contract(ISetToken)4174"
      },
      {
        "astId": 5804,
        "contract": "contracts/manager/ICManagerV2.sol:ICManagerV2",
        "label": "adapters",
        "offset": 0,
        "slot": "2",
        "type": "t_array(t_address)dyn_storage"
      },
      {
        "astId": 5808,
        "contract": "contracts/manager/ICManagerV2.sol:ICManagerV2",
        "label": "isAdapter",
        "offset": 0,
        "slot": "3",
        "type": "t_mapping(t_address,t_bool)"
      },
      {
        "astId": 5810,
        "contract": "contracts/manager/ICManagerV2.sol:ICManagerV2",
        "label": "operator",
        "offset": 0,
        "slot": "4",
        "type": "t_address"
      },
      {
        "astId": 5812,
        "contract": "contracts/manager/ICManagerV2.sol:ICManagerV2",
        "label": "methodologist",
        "offset": 0,
        "slot": "5",
        "type": "t_address"
      }
    ],
    "types": {
      "t_address": {
        "encoding": "inplace",
        "label": "address",
        "numberOfBytes": "20"
      },
      "t_array(t_address)dyn_storage": {
        "base": "t_address",
        "encoding": "dynamic_array",
        "label": "address[]",
        "numberOfBytes": "32"
      },
      "t_bool": {
        "encoding": "inplace",
        "label": "bool",
        "numberOfBytes": "1"
      },
      "t_bytes32": {
        "encoding": "inplace",
        "label": "bytes32",
        "numberOfBytes": "32"
      },
      "t_contract(ISetToken)4174": {
        "encoding": "inplace",
        "label": "contract ISetToken",
        "numberOfBytes": "20"
      },
      "t_mapping(t_address,t_bool)": {
        "encoding": "mapping",
        "key": "t_address",
        "label": "mapping(address => bool)",
        "numberOfBytes": "32",
        "value": "t_bool"
      },
      "t_mapping(t_bytes32,t_bool)": {
        "encoding": "mapping",
        "key": "t_bytes32",
        "label": "mapping(bytes32 => bool)",
        "numberOfBytes": "32",
        "value": "t_bool"
      }
    }
  }
}