{
  "address": "0x240F2B382e76d8BC936f7c4E0b7Da93d5D992655",
  "abi": [
    {
      "inputs": [
        {
          "components": [
            {
              "internalType": "contract ISetToken",
              "name": "setToken",
              "type": "address"
            },
            {
              "internalType": "contract ICompoundLeverageModule",
              "name": "leverageModule",
              "type": "address"
            },
            {
              "internalType": "contract IICManagerV2",
              "name": "manager",
              "type": "address"
            },
            {
              "internalType": "contract IComptroller",
              "name": "comptroller",
              "type": "address"
            },
            {
              "internalType": "contract ICompoundPriceOracle",
              "name": "priceOracle",
              "type": "address"
            },
            {
              "internalType": "contract ICErc20",
              "name": "targetCollateralCToken",
              "type": "address"
            },
            {
              "internalType": "contract ICErc20",
              "name": "targetBorrowCToken",
              "type": "address"
            },
            {
              "internalType": "address",
              "name": "collateralAsset",
              "type": "address"
            },
            {
              "internalType": "address",
              "name": "borrowAsset",
              "type": "address"
            },
            {
              "internalType": "uint256",
              "name": "targetLeverageRatio",
              "type": "uint256"
            },
            {
              "internalType": "uint256",
              "name": "minLeverageRatio",
              "type": "uint256"
            },
            {
              "internalType": "uint256",
              "name": "maxLeverageRatio",
              "type": "uint256"
            },
            {
              "internalType": "uint256",
              "name": "recenteringSpeed",
              "type": "uint256"
            },
            {
              "internalType": "uint256",
              "name": "rebalanceInterval",
              "type": "uint256"
            },
            {
              "internalType": "uint256",
              "name": "unutilizedLeveragePercentage",
              "type": "uint256"
            },
            {
              "internalType": "uint256",
              "name": "twapMaxTradeSize",
              "type": "uint256"
            },
            {
              "internalType": "uint256",
              "name": "twapCooldownPeriod",
              "type": "uint256"
            },
            {
              "internalType": "uint256",
              "name": "slippageTolerance",
              "type": "uint256"
            },
            {
              "internalType": "uint256",
              "name": "etherReward",
              "type": "uint256"
            },
            {
              "internalType": "uint256",
              "name": "incentivizedLeverageRatio",
              "type": "uint256"
            },
            {
              "internalType": "uint256",
              "name": "incentivizedSlippageTolerance",
              "type": "uint256"
            },
            {
              "internalType": "uint256",
              "name": "incentivizedTwapCooldownPeriod",
              "type": "uint256"
            },
            {
              "internalType": "uint256",
              "name": "incentivizedTwapMaxTradeSize",
              "type": "uint256"
            },
            {
              "internalType": "string",
              "name": "exchangeName",
              "type": "string"
            },
            {
              "internalType": "bytes",
              "name": "exchangeData",
              "type": "bytes"
            }
          ],
          "internalType": "struct FlexibleLeverageStrategyAdapter.LeverageTokenSettings",
          "name": "_leverageTokenSettings",
          "type": "tuple"
        }
      ],
      "stateMutability": "nonpayable",
      "type": "constructor"
    },
    {
      "anonymous": false,
      "inputs": [
        {
          "indexed": true,
          "internalType": "bool",
          "name": "_status",
          "type": "bool"
        }
      ],
      "name": "AnyoneTradeUpdated",
      "type": "event"
    },
    {
      "anonymous": false,
      "inputs": [
        {
          "indexed": true,
          "internalType": "address",
          "name": "_trader",
          "type": "address"
        },
        {
          "indexed": false,
          "internalType": "bool",
          "name": "_status",
          "type": "bool"
        }
      ],
      "name": "TraderStatusUpdated",
      "type": "event"
    },
    {
      "inputs": [],
      "name": "anyoneTrade",
      "outputs": [
        {
          "internalType": "bool",
          "name": "",
          "type": "bool"
        }
      ],
      "stateMutability": "view",
      "type": "function"
    },
    {
      "inputs": [],
      "name": "borrowAsset",
      "outputs": [
        {
          "internalType": "address",
          "name": "",
          "type": "address"
        }
      ],
      "stateMutability": "view",
      "type": "function"
    },
    {
      "inputs": [],
      "name": "collateralAsset",
      "outputs": [
        {
          "internalType": "address",
          "name": "",
          "type": "address"
        }
      ],
      "stateMutability": "view",
      "type": "function"
    },
    {
      "inputs": [],
      "name": "comptroller",
      "outputs": [
        {
          "internalType": "contract IComptroller",
          "name": "",
          "type": "address"
        }
      ],
      "stateMutability": "view",
      "type": "function"
    },
    {
      "inputs": [],
      "name": "disengage",
      "outputs": [],
      "stateMutability": "nonpayable",
      "type": "function"
    },
    {
      "inputs": [],
      "name": "engage",
      "outputs": [],
      "stateMutability": "nonpayable",
      "type": "function"
    },
    {
      "inputs": [],
      "name": "etherReward",
      "outputs": [
        {
          "internalType": "uint256",
          "name": "",
          "type": "uint256"
        }
      ],
      "stateMutability": "view",
      "type": "function"
    },
    {
      "inputs": [],
      "name": "exchangeData",
      "outputs": [
        {
          "internalType": "bytes",
          "name": "",
          "type": "bytes"
        }
      ],
      "stateMutability": "view",
      "type": "function"
    },
    {
      "inputs": [],
      "name": "exchangeName",
      "outputs": [
        {
          "internalType": "string",
          "name": "",
          "type": "string"
        }
      ],
      "stateMutability": "view",
      "type": "function"
    },
    {
      "inputs": [],
      "name": "getCurrentEtherIncentive",
      "outputs": [
        {
          "internalType": "uint256",
          "name": "",
          "type": "uint256"
        }
      ],
      "stateMutability": "view",
      "type": "function"
    },
    {
      "inputs": [],
      "name": "getCurrentLeverageRatio",
      "outputs": [
        {
          "internalType": "uint256",
          "name": "",
          "type": "uint256"
        }
      ],
      "stateMutability": "view",
      "type": "function"
    },
    {
      "inputs": [],
      "name": "gulp",
      "outputs": [],
      "stateMutability": "nonpayable",
      "type": "function"
    },
    {
      "inputs": [],
      "name": "incentivizedLeverageRatio",
      "outputs": [
        {
          "internalType": "uint256",
          "name": "",
          "type": "uint256"
        }
      ],
      "stateMutability": "view",
      "type": "function"
    },
    {
      "inputs": [],
      "name": "incentivizedSlippageTolerance",
      "outputs": [
        {
          "internalType": "uint256",
          "name": "",
          "type": "uint256"
        }
      ],
      "stateMutability": "view",
      "type": "function"
    },
    {
      "inputs": [],
      "name": "incentivizedTwapCooldownPeriod",
      "outputs": [
        {
          "internalType": "uint256",
          "name": "",
          "type": "uint256"
        }
      ],
      "stateMutability": "view",
      "type": "function"
    },
    {
      "inputs": [],
      "name": "incentivizedTwapMaxTradeSize",
      "outputs": [
        {
          "internalType": "uint256",
          "name": "",
          "type": "uint256"
        }
      ],
      "stateMutability": "view",
      "type": "function"
    },
    {
      "inputs": [],
      "name": "lastTradeTimestamp",
      "outputs": [
        {
          "internalType": "uint256",
          "name": "",
          "type": "uint256"
        }
      ],
      "stateMutability": "view",
      "type": "function"
    },
    {
      "inputs": [],
      "name": "leverageModule",
      "outputs": [
        {
          "internalType": "contract ICompoundLeverageModule",
          "name": "",
          "type": "address"
        }
      ],
      "stateMutability": "view",
      "type": "function"
    },
    {
      "inputs": [],
      "name": "manager",
      "outputs": [
        {
          "internalType": "contract IICManagerV2",
          "name": "",
          "type": "address"
        }
      ],
      "stateMutability": "view",
      "type": "function"
    },
    {
      "inputs": [],
      "name": "maxLeverageRatio",
      "outputs": [
        {
          "internalType": "uint256",
          "name": "",
          "type": "uint256"
        }
      ],
      "stateMutability": "view",
      "type": "function"
    },
    {
      "inputs": [],
      "name": "minLeverageRatio",
      "outputs": [
        {
          "internalType": "uint256",
          "name": "",
          "type": "uint256"
        }
      ],
      "stateMutability": "view",
      "type": "function"
    },
    {
      "inputs": [],
      "name": "priceOracle",
      "outputs": [
        {
          "internalType": "contract ICompoundPriceOracle",
          "name": "",
          "type": "address"
        }
      ],
      "stateMutability": "view",
      "type": "function"
    },
    {
      "inputs": [],
      "name": "rebalance",
      "outputs": [],
      "stateMutability": "nonpayable",
      "type": "function"
    },
    {
      "inputs": [],
      "name": "rebalanceInterval",
      "outputs": [
        {
          "internalType": "uint256",
          "name": "",
          "type": "uint256"
        }
      ],
      "stateMutability": "view",
      "type": "function"
    },
    {
      "inputs": [],
      "name": "recenteringSpeed",
      "outputs": [
        {
          "internalType": "uint256",
          "name": "",
          "type": "uint256"
        }
      ],
      "stateMutability": "view",
      "type": "function"
    },
    {
      "inputs": [],
      "name": "ripcord",
      "outputs": [],
      "stateMutability": "nonpayable",
      "type": "function"
    },
    {
      "inputs": [
        {
          "internalType": "uint256",
          "name": "_twapCooldownPeriod",
          "type": "uint256"
        }
      ],
      "name": "setCooldownPeriod",
      "outputs": [],
      "stateMutability": "nonpayable",
      "type": "function"
    },
    {
      "inputs": [
        {
          "internalType": "uint256",
          "name": "_etherReward",
          "type": "uint256"
        }
      ],
      "name": "setEtherReward",
      "outputs": [],
      "stateMutability": "nonpayable",
      "type": "function"
    },
    {
      "inputs": [
        {
          "internalType": "string",
          "name": "_exchangeName",
          "type": "string"
        }
      ],
      "name": "setExchange",
      "outputs": [],
      "stateMutability": "nonpayable",
      "type": "function"
    },
    {
      "inputs": [
        {
          "internalType": "bytes",
          "name": "_exchangeData",
          "type": "bytes"
        }
      ],
      "name": "setExchangeData",
      "outputs": [],
      "stateMutability": "nonpayable",
      "type": "function"
    },
    {
      "inputs": [
        {
          "internalType": "uint256",
          "name": "_incentivizedTwapCooldownPeriod",
          "type": "uint256"
        }
      ],
      "name": "setIncentivizedCooldownPeriod",
      "outputs": [],
      "stateMutability": "nonpayable",
      "type": "function"
    },
    {
      "inputs": [
        {
          "internalType": "uint256",
          "name": "_incentivizedLeverageRatio",
          "type": "uint256"
        }
      ],
      "name": "setIncentivizedLeverageRatio",
      "outputs": [],
      "stateMutability": "nonpayable",
      "type": "function"
    },
    {
      "inputs": [
        {
          "internalType": "uint256",
          "name": "_incentivizedTwapMaxTradeSize",
          "type": "uint256"
        }
      ],
      "name": "setIncentivizedMaxTradeSize",
      "outputs": [],
      "stateMutability": "nonpayable",
      "type": "function"
    },
    {
      "inputs": [
        {
          "internalType": "uint256",
          "name": "_incentivizedSlippageTolerance",
          "type": "uint256"
        }
      ],
      "name": "setIncentivizedSlippageTolerance",
      "outputs": [],
      "stateMutability": "nonpayable",
      "type": "function"
    },
    {
      "inputs": [
        {
          "internalType": "uint256",
          "name": "_maxLeverageRatio",
          "type": "uint256"
        }
      ],
      "name": "setMaxLeverageRatio",
      "outputs": [],
      "stateMutability": "nonpayable",
      "type": "function"
    },
    {
      "inputs": [
        {
          "internalType": "uint256",
          "name": "_twapMaxTradeSize",
          "type": "uint256"
        }
      ],
      "name": "setMaxTradeSize",
      "outputs": [],
      "stateMutability": "nonpayable",
      "type": "function"
    },
    {
      "inputs": [
        {
          "internalType": "uint256",
          "name": "_minLeverageRatio",
          "type": "uint256"
        }
      ],
      "name": "setMinLeverageRatio",
      "outputs": [],
      "stateMutability": "nonpayable",
      "type": "function"
    },
    {
      "inputs": [
        {
          "internalType": "uint256",
          "name": "_rebalanceInterval",
          "type": "uint256"
        }
      ],
      "name": "setRebalanceInterval",
      "outputs": [],
      "stateMutability": "nonpayable",
      "type": "function"
    },
    {
      "inputs": [
        {
          "internalType": "uint256",
          "name": "_recenteringSpeed",
          "type": "uint256"
        }
      ],
      "name": "setRecenteringSpeedPercentage",
      "outputs": [],
      "stateMutability": "nonpayable",
      "type": "function"
    },
    {
      "inputs": [
        {
          "internalType": "uint256",
          "name": "_slippageTolerance",
          "type": "uint256"
        }
      ],
      "name": "setSlippageTolerance",
      "outputs": [],
      "stateMutability": "nonpayable",
      "type": "function"
    },
    {
      "inputs": [],
      "name": "setToken",
      "outputs": [
        {
          "internalType": "contract ISetToken",
          "name": "",
          "type": "address"
        }
      ],
      "stateMutability": "view",
      "type": "function"
    },
    {
      "inputs": [
        {
          "internalType": "uint256",
          "name": "_unutilizedLeveragePercentage",
          "type": "uint256"
        }
      ],
      "name": "setUnutilizedLeveragePercentage",
      "outputs": [],
      "stateMutability": "nonpayable",
      "type": "function"
    },
    {
      "inputs": [],
      "name": "shouldRebalance",
      "outputs": [
        {
          "internalType": "enum FlexibleLeverageStrategyAdapter.ShouldRebalance",
          "name": "",
          "type": "uint8"
        }
      ],
      "stateMutability": "view",
      "type": "function"
    },
    {
      "inputs": [],
      "name": "slippageTolerance",
      "outputs": [
        {
          "internalType": "uint256",
          "name": "",
          "type": "uint256"
        }
      ],
      "stateMutability": "view",
      "type": "function"
    },
    {
      "inputs": [],
      "name": "targetBorrowCToken",
      "outputs": [
        {
          "internalType": "contract ICErc20",
          "name": "",
          "type": "address"
        }
      ],
      "stateMutability": "view",
      "type": "function"
    },
    {
      "inputs": [],
      "name": "targetCollateralCToken",
      "outputs": [
        {
          "internalType": "contract ICErc20",
          "name": "",
          "type": "address"
        }
      ],
      "stateMutability": "view",
      "type": "function"
    },
    {
      "inputs": [],
      "name": "targetLeverageRatio",
      "outputs": [
        {
          "internalType": "uint256",
          "name": "",
          "type": "uint256"
        }
      ],
      "stateMutability": "view",
      "type": "function"
    },
    {
      "inputs": [
        {
          "internalType": "address",
          "name": "",
          "type": "address"
        }
      ],
      "name": "tradeAllowList",
      "outputs": [
        {
          "internalType": "bool",
          "name": "",
          "type": "bool"
        }
      ],
      "stateMutability": "view",
      "type": "function"
    },
    {
      "inputs": [],
      "name": "twapCooldownPeriod",
      "outputs": [
        {
          "internalType": "uint256",
          "name": "",
          "type": "uint256"
        }
      ],
      "stateMutability": "view",
      "type": "function"
    },
    {
      "inputs": [],
      "name": "twapLeverageRatio",
      "outputs": [
        {
          "internalType": "uint256",
          "name": "",
          "type": "uint256"
        }
      ],
      "stateMutability": "view",
      "type": "function"
    },
    {
      "inputs": [],
      "name": "twapMaxTradeSize",
      "outputs": [
        {
          "internalType": "uint256",
          "name": "",
          "type": "uint256"
        }
      ],
      "stateMutability": "view",
      "type": "function"
    },
    {
      "inputs": [],
      "name": "unutilizedLeveragePercentage",
      "outputs": [
        {
          "internalType": "uint256",
          "name": "",
          "type": "uint256"
        }
      ],
      "stateMutability": "view",
      "type": "function"
    },
    {
      "inputs": [
        {
          "internalType": "bool",
          "name": "_status",
          "type": "bool"
        }
      ],
      "name": "updateAnyoneTrade",
      "outputs": [],
      "stateMutability": "nonpayable",
      "type": "function"
    },
    {
      "inputs": [
        {
          "internalType": "address[]",
          "name": "_traders",
          "type": "address[]"
        },
        {
          "internalType": "bool[]",
          "name": "_statuses",
          "type": "bool[]"
        }
      ],
      "name": "updateTraderStatus",
      "outputs": [],
      "stateMutability": "nonpayable",
      "type": "function"
    },
    {
      "inputs": [],
      "name": "withdrawEtherBalance",
      "outputs": [],
      "stateMutability": "nonpayable",
      "type": "function"
    },
    {
      "stateMutability": "payable",
      "type": "receive"
    }
  ],
  "transactionHash": "0x342016e5a8f58b70475c941d8f7e935b4913d376513b0a67f7f6ad0c5ad17b3e",
  "args": [
    {
      "setToken": "0x426fd489f1eba738ba06b545a49c8df6d49ac5c5",
      "leverageModule": "0x579AbEEE14a52A4CA6707a4590c524Dc149D56a1",
      "manager": "0x0844dfb7015696b89d73151360dde2e842499f27",
      "comptroller": "0x047ba8fe92c01bffec22a93b3acdfc9a938887f9",
      "priceOracle": "0x160ac3bbbd338bef846dc04ac3d2a9be8de955b1",
      "targetCollateralCToken": "0xefa3e50f493d39a1b53698c549ad35fbf4b1053c",
      "targetBorrowCToken": "0x48f4944f65c1d67009b6d5c9f70bd79c2f41ead8",
      "collateralAsset": "0xd0A1E359811322d97991E03f863a0C30C2cF029C",
      "borrowAsset": "0x15758350DECEA0E5A96cFe9024e3f352d039905a",
      "targetLeverageRatio": "2000000000000000000",
      "minLeverageRatio": "1700000000000000000",
      "maxLeverageRatio": "2300000000000000000",
      "recenteringSpeed": "50000000000000000",
      "rebalanceInterval": "86400",
      "unutilizedLeveragePercentage": "100000000000000000",
      "twapMaxTradeSize": "600000000000000000000",
      "twapCooldownPeriod": "120",
      "slippageTolerance": "20000000000000000",
      "incentivizedTwapMaxTradeSize": "1200000000000000000000",
      "incentivizedTwapCooldownPeriod": "60",
      "incentivizedSlippageTolerance": "50000000000000000",
      "etherReward": "300000000000000000",
      "incentivizedLeverageRatio": "3500000000000000000",
      "exchangeName": "UniswapV2ExchangeAdapter",
      "exchangeData": "0x"
    }
  ],
  "solcInputHash": "0bbfe742aa9ae68c98f1b46eec70d410",
  "bytecode": "0x60806040523480156200001157600080fd5b50604051620042a9380380620042a98339810160408190526200003491620005a4565b80610120015181610140015111156200006a5760405162461bcd60e51b8152600401620000619062000905565b60405180910390fd5b8061012001518161016001511015620000975760405162461bcd60e51b81526004016200006190620007c4565b620000ac6200044860201b6200235b1760201c565b81610180015111158015620000c657506000816101800151115b620000e55760405162461bcd60e51b81526004016200006190620008ce565b620000fa6200044860201b6200235b1760201c565b816101c001511115620001215760405162461bcd60e51b8152600401620000619062000830565b620001366200044860201b6200235b1760201c565b81610220015111156200015d5760405162461bcd60e51b81526004016200006190620007fb565b620001726200044860201b6200235b1760201c565b8161028001511115620001995760405162461bcd60e51b815260040162000061906200093c565b8061016001518161026001511015620001c65760405162461bcd60e51b8152600401620000619062000871565b8051600180546001600160a01b03199081166001600160a01b03938416179091556020808401516002805484169185169190911790556040808501516000805485169186169190911790556060850151600380548516918616919091179055608085015160048054851691861691909117815560a086015160058054861691871691909117905560c086015160068054861691871691909117905560e086015160078054861691871691909117908190556101008701516008805490961690871617909455815163313ce56760e01b81529151939094169363313ce567938282019392909190829003018186803b158015620002c157600080fd5b505afa158015620002d6573d6000803e3d6000fd5b505050506040513d601f19601f82011682018060405250810190620002fc91906200079a565b60ff166009556008546040805163313ce56760e01b815290516001600160a01b039092169163313ce56791600480820192602092909190829003018186803b1580156200034857600080fd5b505afa1580156200035d573d6000803e3d6000fd5b505050506040513d601f19601f820116820180604052508101906200038391906200079a565b60ff16600a55610120810151600b55610140810151600c55610160810151600d55610180810151600e556101a0810151600f556101c08101516010556101e08101516011556102008101516012556102208101516013556102c08101516018556102a08101516017556102808101516016556102408101516014556102608101516015556102e08101518051620004239160199160209091019062000455565b5061030081015180516200044091601a9160209091019062000455565b5050620009b0565b670de0b6b3a76400005b90565b828054600181600116156101000203166002900490600052602060002090601f016020900481019282601f106200049857805160ff1916838001178555620004c8565b82800160010185558215620004c8579182015b82811115620004c8578251825591602001919060010190620004ab565b50620004d6929150620004da565b5090565b6200045291905b80821115620004d65760008155600101620004e1565b80516001600160a01b03811681146200050f57600080fd5b92915050565b600082601f83011262000526578081fd5b81516001600160401b038111156200053c578182fd5b602062000552601f8301601f1916820162000989565b925081835284818386010111156200056957600080fd5b60005b82811015620005895784810182015184820183015281016200056c565b828111156200059b5760008284860101525b50505092915050565b600060208284031215620005b6578081fd5b81516001600160401b0380821115620005cd578283fd5b610320918401808603831315620005e2578384fd5b620005ed8362000989565b620005f98783620004f7565b81526200060a8760208401620004f7565b60208201526200061e8760408401620004f7565b6040820152620006328760608401620004f7565b6060820152620006468760808401620004f7565b60808201526200065a8760a08401620004f7565b60a08201526200066e8760c08401620004f7565b60c0820152620006828760e08401620004f7565b60e082015261010093506200069a87858401620004f7565b9381019390935261012081810151908401526101408082015190840152610160808201519084015261018080820151908401526101a080820151908401526101c080820151908401526101e08082015190840152610200808201519084015261022080820151908401526102408082015190840152610260808201519084015261028080820151908401526102a080820151908401526102c080820151908401526102e0808201519093908381111562000752578586fd5b620007608882850162000515565b8583015250610300935083820151838111156200077b578586fd5b620007898882850162000515565b948201949094529695505050505050565b600060208284031215620007ac578081fd5b815160ff81168114620007bd578182fd5b9392505050565b6020808252601a908201527f4d7573742062652076616c6964206d6178206c65766572616765000000000000604082015260600190565b6020808252818101527f536c69707061676520746f6c6572616e6365206d757374206265203c31303025604082015260600190565b60208082526021908201527f556e7574696c697a6564206c65766572616765206d757374206265203c3130306040820152602560f81b606082015260800190565b60208082526038908201527f496e63656e746976697a6564206c6576657261676520726174696f206d75737460408201527f206265203e206d6178206c6576657261676520726174696f0000000000000000606082015260800190565b6020808252601f908201527f4d7573742062652076616c696420726563656e746572696e6720737065656400604082015260600190565b6020808252601a908201527f4d7573742062652076616c6964206d696e206c65766572616765000000000000604082015260600190565b6020808252602d908201527f496e63656e746976697a656420736c69707061676520746f6c6572616e63652060408201526c6d757374206265203c3130302560981b606082015260800190565b6040518181016001600160401b0381118282101715620009a857600080fd5b604052919050565b6138e980620009c06000396000f3fe6080604052600436106103545760003560e01c80635fe3b567116101c6578063b18a2409116100f7578063d1bfa02311610095578063ed9cf58c1161006f578063ed9cf58c146108a1578063ee63021a146108b6578063f5b33dfa146108cb578063fdfb7091146108e05761035b565b8063d1bfa0231461084c578063d44cfe5a1461086c578063d5d8f48b1461088c5761035b565b8063bc91f93b116100d1578063bc91f93b146107e0578063c31443bb14610800578063cbeef02214610815578063d03153aa146108375761035b565b8063b18a240914610796578063b4db7075146107ab578063b8e0eeb7146107cb5761035b565b80637d1f46e11161016457806394909e621161013e57806394909e6214610735578063a47f65131461074a578063aabaecd61461075f578063ae2c1d5f146107745761035b565b80637d1f46e1146106eb5780637d7c2a1c1461070057806380ea3de1146107155761035b565b80637791637c116101a05780637791637c1461068c5780637921b9aa146106a15780637a993327146106b65780637cc11e7d146106cb5761035b565b80635fe3b567146106375780636d182ed61461064c5780637003c0801461066c5761035b565b80632ec0090a116102a05780634b3f33781161023e57806350297d8c1161021857806350297d8c146105d85780635b7dcaed146105ed5780635bd1a7ad1461060d5780635ef76292146106225761035b565b80634b3f3378146105835780634e362459146105a35780634f68ea5f146105c35761035b565b8063446456e51161027a578063446456e514610524578063481c6a7514610539578063482e68b01461054e5780634a166f681461056e5761035b565b80632ec0090a146104da5780632f4c6809146104ef578063369d4d24146105045761035b565b806313e32ef51161030d57806319f18dee116102e757806319f18dee1461046e578063212124dc146104835780632630c12f146104a3578063272fe452146104c55761035b565b806313e32ef5146104195780631421f6b01461043957806316d1d916146104595761035b565b80630275dd821461036057806302cf08811461038257806305e0150e146103ad5780630727ba47146103c25780630ea44a56146103e4578063117da1ee146103f95761035b565b3661035b57005b600080fd5b34801561036c57600080fd5b5061038061037b366004613239565b6108f5565b005b34801561038e57600080fd5b506103976109da565b6040516103a4919061387b565b60405180910390f35b3480156103b957600080fd5b506103976109e0565b3480156103ce57600080fd5b506103d76109e6565b6040516103a4919061342f565b3480156103f057600080fd5b50610397610a74565b34801561040557600080fd5b50610380610414366004613239565b610a7a565b34801561042557600080fd5b50610380610434366004613239565b610b56565b34801561044557600080fd5b506103806104543660046131f9565b610c32565b34801561046557600080fd5b50610397610d1a565b34801561047a57600080fd5b50610397610d20565b34801561048f57600080fd5b5061038061049e366004613239565b610d26565b3480156104af57600080fd5b506104b8610e02565b6040516103a49190613337565b3480156104d157600080fd5b50610397610e11565b3480156104e657600080fd5b50610380610e17565b3480156104fb57600080fd5b50610397610f1d565b34801561051057600080fd5b5061038061051f366004613239565b610f23565b34801561053057600080fd5b506104b8610fff565b34801561054557600080fd5b506104b861100e565b34801561055a57600080fd5b50610380610569366004613239565b61101d565b34801561057a57600080fd5b506103806110f9565b34801561058f57600080fd5b5061038061059e366004613239565b611240565b3480156105af57600080fd5b506103806105be36600461319b565b61131c565b3480156105cf57600080fd5b506103d7611430565b3480156105e457600080fd5b5061039761148b565b3480156105f957600080fd5b50610380610608366004613239565b611491565b34801561061957600080fd5b5061039761156d565b34801561062e57600080fd5b50610397611573565b34801561064357600080fd5b506104b8611579565b34801561065857600080fd5b50610380610667366004613132565b611588565b34801561067857600080fd5b506103806106873660046131f9565b6117b8565b34801561069857600080fd5b5061039761189b565b3480156106ad57600080fd5b506103976118a1565b3480156106c257600080fd5b506103806118a7565b3480156106d757600080fd5b506103806106e6366004613239565b611993565b3480156106f757600080fd5b506104b8611a6f565b34801561070c57600080fd5b50610380611a7e565b34801561072157600080fd5b50610380610730366004613239565b611c17565b34801561074157600080fd5b50610380611cf3565b34801561075657600080fd5b50610397611da5565b34801561076b57600080fd5b506104b8611dab565b34801561078057600080fd5b50610789611dba565b6040516103a49190613442565b3480156107a257600080fd5b50610397611e9c565b3480156107b757600080fd5b506103806107c6366004613239565b611ea2565b3480156107d757600080fd5b50610397611f7e565b3480156107ec57600080fd5b506103806107fb366004613239565b611fbd565b34801561080c57600080fd5b50610397612099565b34801561082157600080fd5b5061082a6120c5565b6040516103a49190613424565b34801561084357600080fd5b506103976120ce565b34801561085857600080fd5b5061082a6108673660046130fa565b6120d4565b34801561087857600080fd5b50610380610887366004613239565b6120e9565b34801561089857600080fd5b506104b86121c5565b3480156108ad57600080fd5b506104b86121d4565b3480156108c257600080fd5b506103806121e3565b3480156108d757600080fd5b506104b8612346565b3480156108ec57600080fd5b50610397612355565b6000809054906101000a90046001600160a01b03166001600160a01b031663570ca7356040518163ffffffff1660e01b8152600401602060405180830381600087803b15801561094457600080fd5b505af1158015610958573d6000803e3d6000fd5b505050506040513d601f19601f8201168201806040525081019061097c9190613116565b6001600160a01b0316336001600160a01b0316146109b55760405162461bcd60e51b81526004016109ac90613456565b60405180910390fd5b601b54156109d55760405162461bcd60e51b81526004016109ac906135c1565b601455565b60175481565b60185481565b601a805460408051602060026001851615610100026000190190941693909304601f81018490048402820184019092528181529291830182828015610a6c5780601f10610a4157610100808354040283529160200191610a6c565b820191906000526020600020905b815481529060010190602001808311610a4f57829003601f168201915b505050505081565b600b5481565b6000809054906101000a90046001600160a01b03166001600160a01b031663570ca7356040518163ffffffff1660e01b8152600401602060405180830381600087803b158015610ac957600080fd5b505af1158015610add573d6000803e3d6000fd5b505050506040513d601f19601f82011682018060405250810190610b019190613116565b6001600160a01b0316336001600160a01b031614610b315760405162461bcd60e51b81526004016109ac90613456565b601b5415610b515760405162461bcd60e51b81526004016109ac906135c1565b601355565b6000809054906101000a90046001600160a01b03166001600160a01b031663570ca7356040518163ffffffff1660e01b8152600401602060405180830381600087803b158015610ba557600080fd5b505af1158015610bb9573d6000803e3d6000fd5b505050506040513d601f19601f82011682018060405250810190610bdd9190613116565b6001600160a01b0316336001600160a01b031614610c0d5760405162461bcd60e51b81526004016109ac90613456565b601b5415610c2d5760405162461bcd60e51b81526004016109ac906135c1565b601755565b6000809054906101000a90046001600160a01b03166001600160a01b031663570ca7356040518163ffffffff1660e01b8152600401602060405180830381600087803b158015610c8157600080fd5b505af1158015610c95573d6000803e3d6000fd5b505050506040513d601f19601f82011682018060405250810190610cb99190613116565b6001600160a01b0316336001600160a01b031614610ce95760405162461bcd60e51b81526004016109ac90613456565b601b5415610d095760405162461bcd60e51b81526004016109ac906135c1565b610d15601a8383612fa0565b505050565b600f5481565b601c5481565b6000809054906101000a90046001600160a01b03166001600160a01b031663570ca7356040518163ffffffff1660e01b8152600401602060405180830381600087803b158015610d7557600080fd5b505af1158015610d89573d6000803e3d6000fd5b505050506040513d601f19601f82011682018060405250810190610dad9190613116565b6001600160a01b0316336001600160a01b031614610ddd5760405162461bcd60e51b81526004016109ac90613456565b601b5415610dfd5760405162461bcd60e51b81526004016109ac906135c1565b601855565b6004546001600160a01b031681565b60125481565b6000809054906101000a90046001600160a01b03166001600160a01b031663570ca7356040518163ffffffff1660e01b8152600401602060405180830381600087803b158015610e6657600080fd5b505af1158015610e7a573d6000803e3d6000fd5b505050506040513d601f19601f82011682018060405250810190610e9e9190613116565b6001600160a01b0316336001600160a01b031614610ece5760405162461bcd60e51b81526004016109ac90613456565b601b5415610eee5760405162461bcd60e51b81526004016109ac906135c1565b60405133904780156108fc02916000818181858888f19350505050158015610f1a573d6000803e3d6000fd5b50565b60165481565b6000809054906101000a90046001600160a01b03166001600160a01b031663570ca7356040518163ffffffff1660e01b8152600401602060405180830381600087803b158015610f7257600080fd5b505af1158015610f86573d6000803e3d6000fd5b505050506040513d601f19601f82011682018060405250810190610faa9190613116565b6001600160a01b0316336001600160a01b031614610fda5760405162461bcd60e51b81526004016109ac90613456565b601b5415610ffa5760405162461bcd60e51b81526004016109ac906135c1565b601655565b6008546001600160a01b031681565b6000546001600160a01b031681565b6000809054906101000a90046001600160a01b03166001600160a01b031663570ca7356040518163ffffffff1660e01b8152600401602060405180830381600087803b15801561106c57600080fd5b505af1158015611080573d6000803e3d6000fd5b505050506040513d601f19601f820116820180604052508101906110a49190613116565b6001600160a01b0316336001600160a01b0316146110d45760405162461bcd60e51b81526004016109ac90613456565b601b54156110f45760405162461bcd60e51b81526004016109ac906135c1565b601555565b6000809054906101000a90046001600160a01b03166001600160a01b031663570ca7356040518163ffffffff1660e01b8152600401602060405180830381600087803b15801561114857600080fd5b505af115801561115c573d6000803e3d6000fd5b505050506040513d601f19601f820116820180604052508101906111809190613116565b6001600160a01b0316336001600160a01b0316146111b05760405162461bcd60e51b81526004016109ac90613456565b6111b861301a565b6111c0612367565b905060008160c00151116111e65760405162461bcd60e51b81526004016109ac90613820565b600081604001511161120a5760405162461bcd60e51b81526004016109ac906137e9565b60608101511561122c5760405162461bcd60e51b81526004016109ac90613685565b610f1a61123761235b565b600b5483612719565b6000809054906101000a90046001600160a01b03166001600160a01b031663570ca7356040518163ffffffff1660e01b8152600401602060405180830381600087803b15801561128f57600080fd5b505af11580156112a3573d6000803e3d6000fd5b505050506040513d601f19601f820116820180604052508101906112c79190613116565b6001600160a01b0316336001600160a01b0316146112f75760405162461bcd60e51b81526004016109ac90613456565b601b54156113175760405162461bcd60e51b81526004016109ac906135c1565b601155565b6000809054906101000a90046001600160a01b03166001600160a01b031663570ca7356040518163ffffffff1660e01b8152600401602060405180830381600087803b15801561136b57600080fd5b505af115801561137f573d6000803e3d6000fd5b505050506040513d601f19601f820116820180604052508101906113a39190613116565b6001600160a01b0316336001600160a01b0316146113d35760405162461bcd60e51b81526004016109ac90613456565b601b54156113f35760405162461bcd60e51b81526004016109ac906135c1565b601d805460ff19168215159081179091556040517f0fc54d8c9cf44d4c689906554c60dce4f6b9fb1ff4e4b362349967b912ec230090600090a250565b6019805460408051602060026001851615610100026000190190941693909304601f81018490048402820184019092528181529291830182828015610a6c5780601f10610a4157610100808354040283529160200191610a6c565b600e5481565b6000809054906101000a90046001600160a01b03166001600160a01b031663570ca7356040518163ffffffff1660e01b8152600401602060405180830381600087803b1580156114e057600080fd5b505af11580156114f4573d6000803e3d6000fd5b505050506040513d601f19601f820116820180604052508101906115189190613116565b6001600160a01b0316336001600160a01b0316146115485760405162461bcd60e51b81526004016109ac90613456565b601b54156115685760405162461bcd60e51b81526004016109ac906135c1565b600f55565b60145481565b600d5481565b6003546001600160a01b031681565b6000809054906101000a90046001600160a01b03166001600160a01b031663570ca7356040518163ffffffff1660e01b8152600401602060405180830381600087803b1580156115d757600080fd5b505af11580156115eb573d6000803e3d6000fd5b505050506040513d601f19601f8201168201806040525081019061160f9190613116565b6001600160a01b0316336001600160a01b03161461163f5760405162461bcd60e51b81526004016109ac90613456565b601b541561165f5760405162461bcd60e51b81526004016109ac906135c1565b82811461167e5760405162461bcd60e51b81526004016109ac90613480565b8261169b5760405162461bcd60e51b81526004016109ac9061371b565b6116d784848080602002602001604051908101604052809392919081815260200183836020028082843760009201919091525061283992505050565b156116f45760405162461bcd60e51b81526004016109ac906136ad565b60005b838110156117b157600085858381811061170d57fe5b905060200201602081019061172291906130fa565b9050600084848481811061173257fe5b9050602002016020810190611747919061319b565b6001600160a01b0383166000818152601e602052604090819020805460ff191684151517905551919250907f2151742bf02141f8d0d719bc4154470f2b1f5111a182b4170a872b67141112619061179f908490613424565b60405180910390a250506001016116f7565b5050505050565b6000809054906101000a90046001600160a01b03166001600160a01b031663570ca7356040518163ffffffff1660e01b8152600401602060405180830381600087803b15801561180757600080fd5b505af115801561181b573d6000803e3d6000fd5b505050506040513d601f19601f8201168201806040525081019061183f9190613116565b6001600160a01b0316336001600160a01b03161461186f5760405162461bcd60e51b81526004016109ac90613456565b601b541561188f5760405162461bcd60e51b81526004016109ac906135c1565b610d1560198383612fa0565b60155481565b60105481565b3332146118c65760405162461bcd60e51b81526004016109ac906134af565b601b541561190357426118e6601754601c546128ea90919063ffffffff16565b106119035760405162461bcd60e51b81526004016109ac9061379b565b61190b61301a565b611913612367565b905060008160600151116119395760405162461bcd60e51b81526004016109ac906136e4565b600061194d82608001518360a00151612918565b90506015548110156119715760405162461bcd60e51b81526004016109ac90613752565b61198481600d548460165460185461293a565b61198f601454612a3e565b5050565b6000809054906101000a90046001600160a01b03166001600160a01b031663570ca7356040518163ffffffff1660e01b8152600401602060405180830381600087803b1580156119e257600080fd5b505af11580156119f6573d6000803e3d6000fd5b505050506040513d601f19601f82011682018060405250810190611a1a9190613116565b6001600160a01b0316336001600160a01b031614611a4a5760405162461bcd60e51b81526004016109ac90613456565b601b5415611a6a5760405162461bcd60e51b81526004016109ac906135c1565b600d55565b6005546001600160a01b031681565b333214611a9d5760405162461bcd60e51b81526004016109ac906134af565b33611aa781612aa4565b611ac35760405162461bcd60e51b81526004016109ac90613528565b611acb61301a565b611ad3612367565b90506000816060015111611af95760405162461bcd60e51b81526004016109ac906136e4565b6000611b0d82608001518360a00151612918565b90506015548110611b305760405162461bcd60e51b81526004016109ac90613596565b6000601b54600014611b9057611b4582612ad2565b15611b5257505050610f1a565b42611b6a601254601c546128ea90919063ffffffff16565b10611b875760405162461bcd60e51b81526004016109ac90613644565b50601b54611be8565b600f54601c54611ba790429063ffffffff612b2616565b1180611bb45750600d5482115b80611bc05750600c5482105b611bdc5760405162461bcd60e51b81526004016109ac906134e6565b611be582612b68565b90505b81811015611c0657611c0182828560135460115461293a565b611c11565b611c11828285612719565b50505050565b6000809054906101000a90046001600160a01b03166001600160a01b031663570ca7356040518163ffffffff1660e01b8152600401602060405180830381600087803b158015611c6657600080fd5b505af1158015611c7a573d6000803e3d6000fd5b505050506040513d601f19601f82011682018060405250810190611c9e9190613116565b6001600160a01b0316336001600160a01b031614611cce5760405162461bcd60e51b81526004016109ac90613456565b601b5415611cee5760405162461bcd60e51b81526004016109ac906135c1565b601255565b601b5415611d135760405162461bcd60e51b81526004016109ac906135c1565b333214611d325760405162461bcd60e51b81526004016109ac906134af565b600154600754604051606092611d62926001600160a01b0391821692911690600090601990601a906024016133ad565b60408051601f198184030181529190526020810180516001600160e01b0316631fb2b0c160e01b179052600254909150610f1a906001600160a01b031682612be0565b600c5481565b6007546001600160a01b031681565b600080611dc5612099565b9050601b54600014611e41576015548110158015611df8575042611df6601754601c546128ea90919063ffffffff16565b105b15611e07576002915050611e99565b60155481108015611e2d575042611e2b601254601c546128ea90919063ffffffff16565b105b15611e3c576001915050611e99565b611e93565b6015548110611e54576002915050611e99565b600f54601c54611e6b90429063ffffffff612b2616565b1180611e785750600d5481115b80611e845750600c5481105b15611e93576001915050611e99565b60009150505b90565b60115481565b6000809054906101000a90046001600160a01b03166001600160a01b031663570ca7356040518163ffffffff1660e01b8152600401602060405180830381600087803b158015611ef157600080fd5b505af1158015611f05573d6000803e3d6000fd5b505050506040513d601f19601f82011682018060405250810190611f299190613116565b6001600160a01b0316336001600160a01b031614611f595760405162461bcd60e51b81526004016109ac90613456565b601b5415611f795760405162461bcd60e51b81526004016109ac906135c1565b600e55565b600080611f89612099565b90506015548110611faf574760145410611fa35747611fa7565b6014545b915050611e99565b6000915050611e99565b5090565b6000809054906101000a90046001600160a01b03166001600160a01b031663570ca7356040518163ffffffff1660e01b8152600401602060405180830381600087803b15801561200c57600080fd5b505af1158015612020573d6000803e3d6000fd5b505050506040513d601f19601f820116820180604052508101906120449190613116565b6001600160a01b0316336001600160a01b0316146120745760405162461bcd60e51b81526004016109ac90613456565b601b54156120945760405162461bcd60e51b81526004016109ac906135c1565b601055565b60006120a361301a565b6120ab612367565b90506120bf81608001518260a00151612918565b91505090565b601d5460ff1681565b60135481565b601e6020526000908152604090205460ff1681565b6000809054906101000a90046001600160a01b03166001600160a01b031663570ca7356040518163ffffffff1660e01b8152600401602060405180830381600087803b15801561213857600080fd5b505af115801561214c573d6000803e3d6000fd5b505050506040513d601f19601f820116820180604052508101906121709190613116565b6001600160a01b0316336001600160a01b0316146121a05760405162461bcd60e51b81526004016109ac90613456565b601b54156121c05760405162461bcd60e51b81526004016109ac906135c1565b600c55565b6006546001600160a01b031681565b6001546001600160a01b031681565b6000809054906101000a90046001600160a01b03166001600160a01b031663570ca7356040518163ffffffff1660e01b8152600401602060405180830381600087803b15801561223257600080fd5b505af1158015612246573d6000803e3d6000fd5b505050506040513d601f19601f8201168201806040525081019061226a9190613116565b6001600160a01b0316336001600160a01b03161461229a5760405162461bcd60e51b81526004016109ac90613456565b6122a261301a565b6122aa612367565b905060008160c00151116122d05760405162461bcd60e51b81526004016109ac90613820565b60008160400151116122f45760405162461bcd60e51b81526004016109ac906137e9565b60008160600151116123185760405162461bcd60e51b81526004016109ac906136e4565b600061232c82608001518360a00151612918565b905061198f8161233a61235b565b8460135460115461293a565b6002546001600160a01b031681565b601b5481565b670de0b6b3a764000090565b61236f61301a565b61237761301a565b6004805460055460405163fc57d4df60e01b81526001600160a01b039283169363fc57d4df936123a993169101613337565b60206040518083038186803b1580156123c157600080fd5b505afa1580156123d5573d6000803e3d6000fd5b505050506040513d601f19601f820116820180604052508101906123f99190613251565b81526004805460065460405163fc57d4df60e01b81526001600160a01b039283169363fc57d4df9361242d93169101613337565b60206040518083038186803b15801561244557600080fd5b505afa158015612459573d6000803e3d6000fd5b505050506040513d601f19601f8201168201806040525081019061247d9190613251565b60208201526005546001546040516370a0823160e01b81526000926001600160a01b03908116926370a08231926124ba9290911690600401613337565b60206040518083038186803b1580156124d257600080fd5b505afa1580156124e6573d6000803e3d6000fd5b505050506040513d601f19601f8201168201806040525081019061250a9190613251565b90506125a2600560009054906101000a90046001600160a01b03166001600160a01b031663182df0f56040518163ffffffff1660e01b815260040160206040518083038186803b15801561255d57600080fd5b505afa158015612571573d6000803e3d6000fd5b505050506040513d601f19601f820116820180604052508101906125959190613251565b829063ffffffff612c4816565b60408084019190915260065460015491516395dd919360e01b81526001600160a01b03918216926395dd9193926125de92911690600401613337565b60206040518083038186803b1580156125f657600080fd5b505afa15801561260a573d6000803e3d6000fd5b505050506040513d601f19601f8201168201806040525081019061262e9190613251565b60608301526009546040830151835161266192600a0a91612655919063ffffffff612c4816565b9063ffffffff612c7216565b6080830152600a80546060840151602085015161268c939290920a916126559163ffffffff612c4816565b60a0830152600154604080516318160ddd60e01b815290516001600160a01b03909216916318160ddd91600480820192602092909190829003018186803b1580156126d657600080fd5b505afa1580156126ea573d6000803e3d6000fd5b505050506040513d601f19601f8201168201806040525081019061270e9190613251565b60c083015250905090565b60408101516000906127459061273986612655878263ffffffff612b2616565b9063ffffffff612c4816565b90506000612754836001612c90565b9050600061276d6127658385612dac565b601154612dac565b905060006127888560c0015183612c7290919063ffffffff16565b905060006127968287612dc2565b905060006127a383612e0c565b6001546008546007546040519394506060936127dc936001600160a01b0390811693811692169087908790601990601a9060240161334b565b60408051601f198184030181529190526020810180516001600160e01b0316600162114b6960e21b0319179052600254909150612822906001600160a01b031682612be0565b61282d85888b612e2c565b50505050505050505050565b60008082511161285b5760405162461bcd60e51b81526004016109ac90613857565b60005b60018351038110156128df57600083828151811061287857fe5b6020026020010151905060008260010190505b84518110156128d5578481815181106128a057fe5b60200260200101516001600160a01b0316826001600160a01b031614156128cd57600193505050506128e5565b60010161288b565b505060010161285e565b50600090505b919050565b60008282018381101561290f5760405162461bcd60e51b81526004016109ac9061355f565b90505b92915050565b600061290f61292d848463ffffffff612b2616565b849063ffffffff612c7216565b604083015160009061295a9061273988612655818a63ffffffff612b2616565b90506000612969856000612c90565b9050600061298061297a8385612dac565b85612dac565b9050600061299b8760c0015183612c7290919063ffffffff16565b905060006129aa82888a612e5c565b6001546007546008546040519394506060936129e3936001600160a01b0390811693811692169087908790601990601a9060240161334b565b60408051601f198184030181529190526020810180516001600160e01b03166313f74a0f60e21b179052600254909150612a26906001600160a01b031682612be0565b612a3184878c612e2c565b5050505050505050505050565b478110612a775760405133904780156108fc02916000818181858888f19350505050158015612a71573d6000803e3d6000fd5b50610f1a565b604051339082156108fc029083906000818181858888f1935050505015801561198f573d6000803e3d6000fd5b601d5460009060ff16806129125750506001600160a01b03166000908152601e602052604090205460ff1690565b6000600b54601b54108015612ae95750601b548210155b80612b045750600b54601b54118015612b045750601b548211155b15612b1e57612b166000806000612e2c565b5060016128e5565b5060006128e5565b600061290f83836040518060400160405280601e81526020017f536166654d6174683a207375627472616374696f6e206f766572666c6f770000815250612eb6565b600080612b82600e54600b54612c4890919063ffffffff16565b90506000612ba484612739600e54612b9861235b565b9063ffffffff612b2616565b90506000612bb8838363ffffffff6128ea16565b90506000612bc882600d54612dac565b9050612bd6600c5482612ee2565b9695505050505050565b60005460405163355d59f360e11b81526001600160a01b0390911690636abab3e690612c129085908590600401613400565b600060405180830381600087803b158015612c2c57600080fd5b505af1158015612c40573d6000803e3d6000fd5b505050505050565b600061290f670de0b6b3a7640000612c66858563ffffffff612ef216565b9063ffffffff612f2c16565b600061290f82612c6685670de0b6b3a764000063ffffffff612ef216565b600354600554604051638e8f294b60e01b815260009283926001600160a01b0391821692638e8f294b92612cc8921690600401613337565b60606040518083038186803b158015612ce057600080fd5b505afa158015612cf4573d6000803e3d6000fd5b505050506040513d601f19601f82011682018060405250810190612d1891906131b7565b509150506000612d44612d2f601054612b9861235b565b6080870151612739908563ffffffff612c4816565b90508315612d7d57612d74600954600a0a61273987600001516126558960a0015186612b2690919063ffffffff16565b92505050612912565b612d7481612655612d9b8860a0015185612b2690919063ffffffff16565b60408901519063ffffffff612c4816565b6000818310612dbb578161290f565b5090919050565b602081015181516000918291612ddd9163ffffffff612c7216565b9050612e04600a54600a0a61273983612739600954600a0a89612c7290919063ffffffff16565b949350505050565b6000612912612e1f601354612b9861235b565b839063ffffffff612c4816565b42601c5582821415612e3e576000601b555b818314158015612e505750601b548114155b15610d1557601b555050565b602081015181516000918291612e779163ffffffff612c7216565b9050612ead612e8885612b9861235b565b612739600a54600a0a61273985612739600954600a0a8c612c7290919063ffffffff16565b95945050505050565b60008184841115612eda5760405162461bcd60e51b81526004016109ac919061342f565b505050900390565b600081831015612dbb578161290f565b600082612f0157506000612912565b82820282848281612f0e57fe5b041461290f5760405162461bcd60e51b81526004016109ac90613603565b600061290f83836040518060400160405280601a81526020017f536166654d6174683a206469766973696f6e206279207a65726f00000000000081525060008183612f8a5760405162461bcd60e51b81526004016109ac919061342f565b506000838581612f9657fe5b0495945050505050565b828054600181600116156101000203166002900490600052602060002090601f016020900481019282601f10612fe15782800160ff1982351617855561300e565b8280016001018555821561300e579182015b8281111561300e578235825591602001919060010190612ff3565b50611fb9929150613057565b6040518060e00160405280600081526020016000815260200160008152602001600081526020016000815260200160008152602001600081525090565b611e9991905b80821115611fb9576000815560010161305d565b60008083601f840112613082578182fd5b50813567ffffffffffffffff811115613099578182fd5b60208301915083602080830285010111156130b357600080fd5b9250929050565b60008083601f8401126130cb578182fd5b50813567ffffffffffffffff8111156130e2578182fd5b6020830191508360208285010111156130b357600080fd5b60006020828403121561310b578081fd5b813561290f81613890565b600060208284031215613127578081fd5b815161290f81613890565b60008060008060408587031215613147578283fd5b843567ffffffffffffffff8082111561315e578485fd5b61316a88838901613071565b90965094506020870135915080821115613182578384fd5b5061318f87828801613071565b95989497509550505050565b6000602082840312156131ac578081fd5b813561290f816138a5565b6000806000606084860312156131cb578283fd5b83516131d6816138a5565b6020850151604086015191945092506131ee816138a5565b809150509250925092565b6000806020838503121561320b578182fd5b823567ffffffffffffffff811115613221578283fd5b61322d858286016130ba565b90969095509350505050565b60006020828403121561324a578081fd5b5035919050565b600060208284031215613262578081fd5b5051919050565b60008151808452815b8181101561328e57602081850181015186830182015201613272565b8181111561329f5782602083870101525b50601f01601f19169290920160200192915050565b600081546001808216600081146132d257600181146132f05761332e565b60028304607f16865260ff198316602087015260408601935061332e565b6002830480875261330086613884565b60005b828110156133245781546020828b0101528482019150602081019050613303565b8801602001955050505b50505092915050565b6001600160a01b0391909116815260200190565b6001600160a01b038881168252878116602083015286166040820152606081018590526080810184905260e060a0820181905260009061338d908301856132b4565b82810360c084015261339f81856132b4565b9a9950505050505050505050565b6001600160a01b0386811682528516602082015260ff8416604082015260a0606082018190526000906133e2908301856132b4565b82810360808401526133f481856132b4565b98975050505050505050565b6001600160a01b0383168152604060208201819052600090612e0490830184613269565b901515815260200190565b60006020825261290f6020830184613269565b602081016003831061345057fe5b91905290565b60208082526010908201526f26bab9ba1031329037b832b930ba37b960811b604082015260600190565b602080825260159082015274082e4e4c2f240d8cadccee8d040dad2e6dac2e8c6d605b1b604082015260600190565b6020808252601a908201527f43616c6c6572206d75737420626520454f412041646472657373000000000000604082015260600190565b60208082526022908201527f526562616c616e636520696e74657276616c206e6f742079657420656c617073604082015261195960f21b606082015260800190565b6020808252601e908201527f41646472657373206e6f74207065726d697474656420746f2074726164650000604082015260600190565b6020808252601b908201527f536166654d6174683a206164646974696f6e206f766572666c6f770000000000604082015260600190565b602080825260119082015270135d5cdd0818d85b1b081c9a5c18dbdc99607a1b604082015260600190565b60208082526022908201527f526562616c616e63652069732063757272656e746c7920696e2070726f677265604082015261737360f01b606082015260800190565b60208082526021908201527f536166654d6174683a206d756c7469706c69636174696f6e206f766572666c6f6040820152607760f81b606082015260800190565b60208082526021908201527f436f6f6c646f776e20706572696f64206d757374206861766520656c617073656040820152601960fa1b606082015260800190565b6020808252600e908201526d044656274206d75737420626520360941b604082015260600190565b60208082526018908201527f43616e6e6f74206475706c696361746520747261646572730000000000000000604082015260600190565b60208082526019908201527f426f72726f772062616c616e6365206d75737420657869737400000000000000604082015260600190565b60208082526018908201527f4172726179206c656e677468206d757374206265203e20300000000000000000604082015260600190565b60208082526029908201527f4d7573742062652061626f766520696e63656e746976697a6564206c6576657260408201526861676520726174696f60b81b606082015260800190565b6020808252602e908201527f496e63656e746976697a656420636f6f6c646f776e20706572696f64206d757360408201526d1d081a185d9948195b185c1cd95960921b606082015260800190565b6020808252601e908201527f436f6c6c61746572616c2062616c616e6365206d757374206265203e20300000604082015260600190565b6020808252601d908201527f536574546f6b656e206d7573742068617665203e203020737570706c79000000604082015260600190565b6020808252600a90820152694120697320656d70747960b01b604082015260600190565b90815260200190565b60009081526020902090565b6001600160a01b0381168114610f1a57600080fd5b8015158114610f1a57600080fdfea2646970667358221220dc5cd181217059417fd3da7cc24ad8a398395520b0961ec1df95b90071d383dc64736f6c634300060a0033",
  "devdoc": {
    "author": "Set Protocol Smart contract that enables trustless leverage tokens using the flexible leverage methodology. This adapter is paired with the CompoundLeverageModule from Set protocol where module interactions are invoked via the ICManagerV2 contract. Any leveraged token can be constructed as long as the collateral and borrow asset is available on Compound. This adapter contract also allows the operator to set an ETH reward to incentivize keepers calling the rebalance function at different leverage thresholds.",
    "methods": {
      "constructor": {
        "params": {
          "_leverageTokenSettings": "Struct containing data for initializing this adapter"
        }
      },
      "setCooldownPeriod(uint256)": {
        "params": {
          "_twapCooldownPeriod": "New TWAP cooldown period in seconds"
        }
      },
      "setEtherReward(uint256)": {
        "params": {
          "_etherReward": "Amount of Ether in base units (10e18) per ripcord call"
        }
      },
      "setExchange(string)": {
        "params": {
          "_exchangeName": "Name of new exchange to set"
        }
      },
      "setExchangeData(bytes)": {
        "params": {
          "_exchangeData": "Arbitrary exchange data"
        }
      },
      "setIncentivizedCooldownPeriod(uint256)": {
        "params": {
          "_incentivizedTwapCooldownPeriod": "TWAP cooldown period in seconds"
        }
      },
      "setIncentivizedLeverageRatio(uint256)": {
        "params": {
          "_incentivizedLeverageRatio": "Leverage ratio required to receive lower tier of ETH rewards"
        }
      },
      "setIncentivizedMaxTradeSize(uint256)": {
        "params": {
          "_incentivizedTwapMaxTradeSize": "Max trade size in collateral units"
        }
      },
      "setIncentivizedSlippageTolerance(uint256)": {
        "params": {
          "_incentivizedSlippageTolerance": "Slippage tolerance in percentage in precise units. (1% = 1e16)"
        }
      },
      "setMaxLeverageRatio(uint256)": {
        "params": {
          "_maxLeverageRatio": "New max leverage ratio for methodology"
        }
      },
      "setMaxTradeSize(uint256)": {
        "params": {
          "_twapMaxTradeSize": "Max trade size in collateral units"
        }
      },
      "setMinLeverageRatio(uint256)": {
        "params": {
          "_minLeverageRatio": "New min leverage ratio for methodology"
        }
      },
      "setRebalanceInterval(uint256)": {
        "params": {
          "_rebalanceInterval": "New rebalance interval in seconds"
        }
      },
      "setRecenteringSpeedPercentage(uint256)": {
        "params": {
          "_recenteringSpeed": "New recentering speed in percentage (1% = 1e16)"
        }
      },
      "setSlippageTolerance(uint256)": {
        "params": {
          "_slippageTolerance": "Slippage tolerance in percentage in precise units (1% = 1e16)"
        }
      },
      "setUnutilizedLeveragePercentage(uint256)": {
        "params": {
          "_unutilizedLeveragePercentage": "New buffer percentage"
        }
      },
      "updateAnyoneTrade(bool)": {
        "params": {
          "_status": "Boolean indicating whether to allow anyone trade"
        }
      },
      "updateTraderStatus(address[],bool[])": {
        "params": {
          "_traders": "Array trader addresses to toggle status"
        }
      }
    },
    "title": "FlexibleLeverageStrategyAdapter"
  },
  "userdoc": {
    "methods": {
      "constructor": "Instantiate addresses, asset decimals, methodology parameters, execution parameters, and initial exchange name and data ",
      "disengage()": {
        "notice": "OPERATOR ONLY: Return leverage ratio to 1x and delever to repay loan. This can be used for upgrading or shutting down the strategy. Note: due to rounding on trades, loan value may not be entirely repaid."
      },
      "engage()": {
        "notice": "OPERATOR ONLY: Engage to target leverage ratio for the first time. SetToken will borrow debt position from Compound and trade for collateral asset. If target leverage ratio is above max borrow or max trade size, then TWAP is kicked off. To complete engage if TWAP, you must call rebalance until target is met."
      },
      "getCurrentEtherIncentive()": {
        "notice": "Get current Ether incentive for when current leverage ratio exceeds incentivized leverage ratio and ripcord can be called return etherReward               Quantity of ETH reward in base units (10e18)"
      },
      "getCurrentLeverageRatio()": {
        "notice": "Get current leverage ratio. Current leverage ratio is defined as the USD value of the collateral divided by the USD value of the SetToken. Prices for collateral and borrow asset are retrieved from the Compound Price Oracle. return currentLeverageRatio         Current leverage ratio in precise units (10e18)"
      },
      "gulp()": {
        "notice": "ONLY EOA: Call gulp on the CompoundLeverageModule. Gulp will claim COMP from liquidity mining and sell for more collateral asset, which effectively distributes to SetToken holders and reduces the interest rate paid for borrowing. Rebalance must not be in progress. Anyone callable"
      },
      "rebalance()": {
        "notice": "ONLY EOA AND ALLOWED TRADER: Rebalance according to flexible leverage methodology. If current leverage ratio is between the max and min bounds, then rebalance  can only be called once the rebalance interval has elapsed since last timestamp. If outside the max and min, rebalance can be called anytime to bring leverage ratio back to the max or min bounds. The methodology will determine whether to delever or lever. Note: If the calculated current leverage ratio is above the incentivized leverage ratio then rebalance cannot be called. Instead, you must call ripcord() which is incentivized with a reward in Ether"
      },
      "ripcord()": {
        "notice": "ONLY EOA: In case the current leverage ratio exceeds the incentivized leverage threshold, the ripcord function can be called by anyone to return leverage ratio back to the max leverage ratio. This function typically would only be called during times of high downside volatility and / or normal keeper malfunctions. The caller of ripcord() will receive a reward in Ether. The ripcord function uses it's own TWAP cooldown period, slippage tolerance and TWAP max trade size which are typically looser than in the rebalance() function."
      },
      "setCooldownPeriod(uint256)": {
        "notice": "OPERATOR ONLY: Set TWAP cooldown period in seconds for regular rebalance. Rebalance must not be in progress"
      },
      "setEtherReward(uint256)": {
        "notice": "OPERATOR ONLY: Set ETH reward for a single ripcord function call. Rebalance must not be in progress"
      },
      "setExchange(string)": {
        "notice": "OPERATOR ONLY: Set exchange name identifier used to execute trades. Rebalance must not be in progress"
      },
      "setExchangeData(bytes)": {
        "notice": "OPERATOR ONLY: Set exchange data that is used by certain exchanges to execute trades. Rebalance must not be in progress"
      },
      "setIncentivizedCooldownPeriod(uint256)": {
        "notice": "OPERATOR ONLY: Set cooldown period in seconds for ripcord function. Rebalance must not be in progress"
      },
      "setIncentivizedLeverageRatio(uint256)": {
        "notice": "OPERATOR ONLY: Set leverage ratio threshold at which keepers are eligible to call ripcord and receive an ETH reward. Rebalance must not be in progress"
      },
      "setIncentivizedMaxTradeSize(uint256)": {
        "notice": "OPERATOR ONLY: Set max trade size in collateral base units for ripcord function. Rebalance must not be in progress"
      },
      "setIncentivizedSlippageTolerance(uint256)": {
        "notice": "OPERATOR ONLY: Set slippage tolerance for when rebalance is incentivized. Rebalance must not be in progress"
      },
      "setMaxLeverageRatio(uint256)": {
        "notice": "OPERATOR ONLY: Set max leverage ratio. If current leverage ratio rises above, strategy will rebalance to this ratio. Rebalance must not be in progress"
      },
      "setMaxTradeSize(uint256)": {
        "notice": "OPERATOR ONLY: Set max trade size in collateral base units for regular rebalance. Rebalance must not be in progress"
      },
      "setMinLeverageRatio(uint256)": {
        "notice": "OPERATOR ONLY: Set min leverage ratio. If current leverage ratio falls below, strategy will rebalance to this ratio. Rebalance must not be in progress"
      },
      "setRebalanceInterval(uint256)": {
        "notice": "OPERATOR ONLY: Set rebalance interval in seconds. Rebalance must not be in progress"
      },
      "setRecenteringSpeedPercentage(uint256)": {
        "notice": "OPERATOR ONLY: Set recentering speed in percentage. Rebalance must not be in progress"
      },
      "setSlippageTolerance(uint256)": {
        "notice": "OPERATOR ONLY: Set slippage tolerance in percentage for regular rebalance. Rebalance must not be in progress"
      },
      "setUnutilizedLeveragePercentage(uint256)": {
        "notice": "OPERATOR ONLY: Set percentage of max borrow left utilized. Rebalance must not be in progress"
      },
      "shouldRebalance()": {
        "notice": "Helper that checks if conditions are met for rebalance or ripcord. Returns an enum with 0 = no rebalance, 1 = call rebalance(), 2 = call ripcord() return ShouldRebalance         Enum detailing whether to rebalance, ripcord or no action"
      },
      "updateAnyoneTrade(bool)": {
        "notice": "OPERATOR ONLY: Toggle whether anyone can trade, bypassing the traderAllowList "
      },
      "updateTraderStatus(address[],bool[])": {
        "notice": "OPERATOR ONLY: Toggle ability for passed addresses to trade from current state "
      },
      "withdrawEtherBalance()": {
        "notice": "OPERATOR ONLY: Withdraw entire balance of ETH in this contract to operator. Rebalance must not be in progress"
      }
    }
  },
  "storageLayout": {
    "storage": [
      {
        "astId": 4612,
        "contract": "contracts/adapters/FlexibleLeverageStrategyAdapter.sol:FlexibleLeverageStrategyAdapter",
        "label": "manager",
        "offset": 0,
        "slot": "0",
        "type": "t_contract(IICManagerV2)3821"
      },
      {
        "astId": 1880,
        "contract": "contracts/adapters/FlexibleLeverageStrategyAdapter.sol:FlexibleLeverageStrategyAdapter",
        "label": "setToken",
        "offset": 0,
        "slot": "1",
        "type": "t_contract(ISetToken)4174"
      },
      {
        "astId": 1882,
        "contract": "contracts/adapters/FlexibleLeverageStrategyAdapter.sol:FlexibleLeverageStrategyAdapter",
        "label": "leverageModule",
        "offset": 0,
        "slot": "2",
        "type": "t_contract(ICompoundLeverageModule)3751"
      },
      {
        "astId": 1884,
        "contract": "contracts/adapters/FlexibleLeverageStrategyAdapter.sol:FlexibleLeverageStrategyAdapter",
        "label": "comptroller",
        "offset": 0,
        "slot": "3",
        "type": "t_contract(IComptroller)3800"
      },
      {
        "astId": 1886,
        "contract": "contracts/adapters/FlexibleLeverageStrategyAdapter.sol:FlexibleLeverageStrategyAdapter",
        "label": "priceOracle",
        "offset": 0,
        "slot": "4",
        "type": "t_contract(ICompoundPriceOracle)3762"
      },
      {
        "astId": 1888,
        "contract": "contracts/adapters/FlexibleLeverageStrategyAdapter.sol:FlexibleLeverageStrategyAdapter",
        "label": "targetCollateralCToken",
        "offset": 0,
        "slot": "5",
        "type": "t_contract(ICErc20)3693"
      },
      {
        "astId": 1890,
        "contract": "contracts/adapters/FlexibleLeverageStrategyAdapter.sol:FlexibleLeverageStrategyAdapter",
        "label": "targetBorrowCToken",
        "offset": 0,
        "slot": "6",
        "type": "t_contract(ICErc20)3693"
      },
      {
        "astId": 1892,
        "contract": "contracts/adapters/FlexibleLeverageStrategyAdapter.sol:FlexibleLeverageStrategyAdapter",
        "label": "collateralAsset",
        "offset": 0,
        "slot": "7",
        "type": "t_address"
      },
      {
        "astId": 1894,
        "contract": "contracts/adapters/FlexibleLeverageStrategyAdapter.sol:FlexibleLeverageStrategyAdapter",
        "label": "borrowAsset",
        "offset": 0,
        "slot": "8",
        "type": "t_address"
      },
      {
        "astId": 1896,
        "contract": "contracts/adapters/FlexibleLeverageStrategyAdapter.sol:FlexibleLeverageStrategyAdapter",
        "label": "collateralAssetDecimals",
        "offset": 0,
        "slot": "9",
        "type": "t_uint256"
      },
      {
        "astId": 1898,
        "contract": "contracts/adapters/FlexibleLeverageStrategyAdapter.sol:FlexibleLeverageStrategyAdapter",
        "label": "borrowAssetDecimals",
        "offset": 0,
        "slot": "10",
        "type": "t_uint256"
      },
      {
        "astId": 1900,
        "contract": "contracts/adapters/FlexibleLeverageStrategyAdapter.sol:FlexibleLeverageStrategyAdapter",
        "label": "targetLeverageRatio",
        "offset": 0,
        "slot": "11",
        "type": "t_uint256"
      },
      {
        "astId": 1902,
        "contract": "contracts/adapters/FlexibleLeverageStrategyAdapter.sol:FlexibleLeverageStrategyAdapter",
        "label": "minLeverageRatio",
        "offset": 0,
        "slot": "12",
        "type": "t_uint256"
      },
      {
        "astId": 1904,
        "contract": "contracts/adapters/FlexibleLeverageStrategyAdapter.sol:FlexibleLeverageStrategyAdapter",
        "label": "maxLeverageRatio",
        "offset": 0,
        "slot": "13",
        "type": "t_uint256"
      },
      {
        "astId": 1906,
        "contract": "contracts/adapters/FlexibleLeverageStrategyAdapter.sol:FlexibleLeverageStrategyAdapter",
        "label": "recenteringSpeed",
        "offset": 0,
        "slot": "14",
        "type": "t_uint256"
      },
      {
        "astId": 1908,
        "contract": "contracts/adapters/FlexibleLeverageStrategyAdapter.sol:FlexibleLeverageStrategyAdapter",
        "label": "rebalanceInterval",
        "offset": 0,
        "slot": "15",
        "type": "t_uint256"
      },
      {
        "astId": 1910,
        "contract": "contracts/adapters/FlexibleLeverageStrategyAdapter.sol:FlexibleLeverageStrategyAdapter",
        "label": "unutilizedLeveragePercentage",
        "offset": 0,
        "slot": "16",
        "type": "t_uint256"
      },
      {
        "astId": 1912,
        "contract": "contracts/adapters/FlexibleLeverageStrategyAdapter.sol:FlexibleLeverageStrategyAdapter",
        "label": "twapMaxTradeSize",
        "offset": 0,
        "slot": "17",
        "type": "t_uint256"
      },
      {
        "astId": 1914,
        "contract": "contracts/adapters/FlexibleLeverageStrategyAdapter.sol:FlexibleLeverageStrategyAdapter",
        "label": "twapCooldownPeriod",
        "offset": 0,
        "slot": "18",
        "type": "t_uint256"
      },
      {
        "astId": 1916,
        "contract": "contracts/adapters/FlexibleLeverageStrategyAdapter.sol:FlexibleLeverageStrategyAdapter",
        "label": "slippageTolerance",
        "offset": 0,
        "slot": "19",
        "type": "t_uint256"
      },
      {
        "astId": 1918,
        "contract": "contracts/adapters/FlexibleLeverageStrategyAdapter.sol:FlexibleLeverageStrategyAdapter",
        "label": "etherReward",
        "offset": 0,
        "slot": "20",
        "type": "t_uint256"
      },
      {
        "astId": 1920,
        "contract": "contracts/adapters/FlexibleLeverageStrategyAdapter.sol:FlexibleLeverageStrategyAdapter",
        "label": "incentivizedLeverageRatio",
        "offset": 0,
        "slot": "21",
        "type": "t_uint256"
      },
      {
        "astId": 1922,
        "contract": "contracts/adapters/FlexibleLeverageStrategyAdapter.sol:FlexibleLeverageStrategyAdapter",
        "label": "incentivizedSlippageTolerance",
        "offset": 0,
        "slot": "22",
        "type": "t_uint256"
      },
      {
        "astId": 1924,
        "contract": "contracts/adapters/FlexibleLeverageStrategyAdapter.sol:FlexibleLeverageStrategyAdapter",
        "label": "incentivizedTwapCooldownPeriod",
        "offset": 0,
        "slot": "23",
        "type": "t_uint256"
      },
      {
        "astId": 1926,
        "contract": "contracts/adapters/FlexibleLeverageStrategyAdapter.sol:FlexibleLeverageStrategyAdapter",
        "label": "incentivizedTwapMaxTradeSize",
        "offset": 0,
        "slot": "24",
        "type": "t_uint256"
      },
      {
        "astId": 1928,
        "contract": "contracts/adapters/FlexibleLeverageStrategyAdapter.sol:FlexibleLeverageStrategyAdapter",
        "label": "exchangeName",
        "offset": 0,
        "slot": "25",
        "type": "t_string_storage"
      },
      {
        "astId": 1930,
        "contract": "contracts/adapters/FlexibleLeverageStrategyAdapter.sol:FlexibleLeverageStrategyAdapter",
        "label": "exchangeData",
        "offset": 0,
        "slot": "26",
        "type": "t_bytes_storage"
      },
      {
        "astId": 1932,
        "contract": "contracts/adapters/FlexibleLeverageStrategyAdapter.sol:FlexibleLeverageStrategyAdapter",
        "label": "twapLeverageRatio",
        "offset": 0,
        "slot": "27",
        "type": "t_uint256"
      },
      {
        "astId": 1934,
        "contract": "contracts/adapters/FlexibleLeverageStrategyAdapter.sol:FlexibleLeverageStrategyAdapter",
        "label": "lastTradeTimestamp",
        "offset": 0,
        "slot": "28",
        "type": "t_uint256"
      },
      {
        "astId": 1936,
        "contract": "contracts/adapters/FlexibleLeverageStrategyAdapter.sol:FlexibleLeverageStrategyAdapter",
        "label": "anyoneTrade",
        "offset": 0,
        "slot": "29",
        "type": "t_bool"
      },
      {
        "astId": 1940,
        "contract": "contracts/adapters/FlexibleLeverageStrategyAdapter.sol:FlexibleLeverageStrategyAdapter",
        "label": "tradeAllowList",
        "offset": 0,
        "slot": "30",
        "type": "t_mapping(t_address,t_bool)"
      }
    ],
    "types": {
      "t_address": {
        "encoding": "inplace",
        "label": "address",
        "numberOfBytes": "20"
      },
      "t_bool": {
        "encoding": "inplace",
        "label": "bool",
        "numberOfBytes": "1"
      },
      "t_bytes_storage": {
        "encoding": "bytes",
        "label": "bytes",
        "numberOfBytes": "32"
      },
      "t_contract(ICErc20)3693": {
        "encoding": "inplace",
        "label": "contract ICErc20",
        "numberOfBytes": "20"
      },
      "t_contract(ICompoundLeverageModule)3751": {
        "encoding": "inplace",
        "label": "contract ICompoundLeverageModule",
        "numberOfBytes": "20"
      },
      "t_contract(ICompoundPriceOracle)3762": {
        "encoding": "inplace",
        "label": "contract ICompoundPriceOracle",
        "numberOfBytes": "20"
      },
      "t_contract(IComptroller)3800": {
        "encoding": "inplace",
        "label": "contract IComptroller",
        "numberOfBytes": "20"
      },
      "t_contract(IICManagerV2)3821": {
        "encoding": "inplace",
        "label": "contract IICManagerV2",
        "numberOfBytes": "20"
      },
      "t_contract(ISetToken)4174": {
        "encoding": "inplace",
        "label": "contract ISetToken",
        "numberOfBytes": "20"
      },
      "t_mapping(t_address,t_bool)": {
        "encoding": "mapping",
        "key": "t_address",
        "label": "mapping(address => bool)",
        "numberOfBytes": "32",
        "value": "t_bool"
      },
      "t_string_storage": {
        "encoding": "bytes",
        "label": "string",
        "numberOfBytes": "32"
      },
      "t_uint256": {
        "encoding": "inplace",
        "label": "uint256",
        "numberOfBytes": "32"
      }
    }
  }
}