{
  "address": "0xb4822E43cEe8A3d9FB1eE617249aDA484e49C77a",
  "abi": [
    {
      "inputs": [
        {
          "internalType": "address",
          "name": "_rewardsDistribution",
          "type": "address"
        },
        {
          "internalType": "address",
          "name": "_rewardsToken",
          "type": "address"
        },
        {
          "internalType": "address",
          "name": "_stakingToken",
          "type": "address"
        },
        {
          "internalType": "uint256",
          "name": "_rewardsDuration",
          "type": "uint256"
        }
      ],
      "stateMutability": "nonpayable",
      "type": "constructor"
    },
    {
      "anonymous": false,
      "inputs": [
        {
          "indexed": false,
          "internalType": "uint256",
          "name": "reward",
          "type": "uint256"
        }
      ],
      "name": "RewardAdded",
      "type": "event"
    },
    {
      "anonymous": false,
      "inputs": [
        {
          "indexed": true,
          "internalType": "address",
          "name": "user",
          "type": "address"
        },
        {
          "indexed": false,
          "internalType": "uint256",
          "name": "reward",
          "type": "uint256"
        }
      ],
      "name": "RewardPaid",
      "type": "event"
    },
    {
      "anonymous": false,
      "inputs": [
        {
          "indexed": true,
          "internalType": "address",
          "name": "user",
          "type": "address"
        },
        {
          "indexed": false,
          "internalType": "uint256",
          "name": "amount",
          "type": "uint256"
        }
      ],
      "name": "Staked",
      "type": "event"
    },
    {
      "anonymous": false,
      "inputs": [
        {
          "indexed": true,
          "internalType": "address",
          "name": "user",
          "type": "address"
        },
        {
          "indexed": false,
          "internalType": "uint256",
          "name": "amount",
          "type": "uint256"
        }
      ],
      "name": "Withdrawn",
      "type": "event"
    },
    {
      "inputs": [
        {
          "internalType": "address",
          "name": "account",
          "type": "address"
        }
      ],
      "name": "balanceOf",
      "outputs": [
        {
          "internalType": "uint256",
          "name": "",
          "type": "uint256"
        }
      ],
      "stateMutability": "view",
      "type": "function"
    },
    {
      "inputs": [
        {
          "internalType": "address",
          "name": "account",
          "type": "address"
        }
      ],
      "name": "earned",
      "outputs": [
        {
          "internalType": "uint256",
          "name": "",
          "type": "uint256"
        }
      ],
      "stateMutability": "view",
      "type": "function"
    },
    {
      "inputs": [],
      "name": "exit",
      "outputs": [],
      "stateMutability": "nonpayable",
      "type": "function"
    },
    {
      "inputs": [],
      "name": "getReward",
      "outputs": [],
      "stateMutability": "nonpayable",
      "type": "function"
    },
    {
      "inputs": [],
      "name": "getRewardForDuration",
      "outputs": [
        {
          "internalType": "uint256",
          "name": "",
          "type": "uint256"
        }
      ],
      "stateMutability": "view",
      "type": "function"
    },
    {
      "inputs": [],
      "name": "lastTimeRewardApplicable",
      "outputs": [
        {
          "internalType": "uint256",
          "name": "",
          "type": "uint256"
        }
      ],
      "stateMutability": "view",
      "type": "function"
    },
    {
      "inputs": [],
      "name": "lastUpdateTime",
      "outputs": [
        {
          "internalType": "uint256",
          "name": "",
          "type": "uint256"
        }
      ],
      "stateMutability": "view",
      "type": "function"
    },
    {
      "inputs": [
        {
          "internalType": "uint256",
          "name": "reward",
          "type": "uint256"
        }
      ],
      "name": "notifyRewardAmount",
      "outputs": [],
      "stateMutability": "nonpayable",
      "type": "function"
    },
    {
      "inputs": [],
      "name": "periodFinish",
      "outputs": [
        {
          "internalType": "uint256",
          "name": "",
          "type": "uint256"
        }
      ],
      "stateMutability": "view",
      "type": "function"
    },
    {
      "inputs": [],
      "name": "rewardPerToken",
      "outputs": [
        {
          "internalType": "uint256",
          "name": "",
          "type": "uint256"
        }
      ],
      "stateMutability": "view",
      "type": "function"
    },
    {
      "inputs": [],
      "name": "rewardPerTokenStored",
      "outputs": [
        {
          "internalType": "uint256",
          "name": "",
          "type": "uint256"
        }
      ],
      "stateMutability": "view",
      "type": "function"
    },
    {
      "inputs": [],
      "name": "rewardRate",
      "outputs": [
        {
          "internalType": "uint256",
          "name": "",
          "type": "uint256"
        }
      ],
      "stateMutability": "view",
      "type": "function"
    },
    {
      "inputs": [
        {
          "internalType": "address",
          "name": "",
          "type": "address"
        }
      ],
      "name": "rewards",
      "outputs": [
        {
          "internalType": "uint256",
          "name": "",
          "type": "uint256"
        }
      ],
      "stateMutability": "view",
      "type": "function"
    },
    {
      "inputs": [],
      "name": "rewardsDistribution",
      "outputs": [
        {
          "internalType": "address",
          "name": "",
          "type": "address"
        }
      ],
      "stateMutability": "view",
      "type": "function"
    },
    {
      "inputs": [],
      "name": "rewardsDuration",
      "outputs": [
        {
          "internalType": "uint256",
          "name": "",
          "type": "uint256"
        }
      ],
      "stateMutability": "view",
      "type": "function"
    },
    {
      "inputs": [],
      "name": "rewardsToken",
      "outputs": [
        {
          "internalType": "contract IERC20",
          "name": "",
          "type": "address"
        }
      ],
      "stateMutability": "view",
      "type": "function"
    },
    {
      "inputs": [
        {
          "internalType": "uint256",
          "name": "amount",
          "type": "uint256"
        }
      ],
      "name": "stake",
      "outputs": [],
      "stateMutability": "nonpayable",
      "type": "function"
    },
    {
      "inputs": [],
      "name": "stakingToken",
      "outputs": [
        {
          "internalType": "contract IERC20",
          "name": "",
          "type": "address"
        }
      ],
      "stateMutability": "view",
      "type": "function"
    },
    {
      "inputs": [],
      "name": "totalSupply",
      "outputs": [
        {
          "internalType": "uint256",
          "name": "",
          "type": "uint256"
        }
      ],
      "stateMutability": "view",
      "type": "function"
    },
    {
      "inputs": [
        {
          "internalType": "address",
          "name": "",
          "type": "address"
        }
      ],
      "name": "userRewardPerTokenPaid",
      "outputs": [
        {
          "internalType": "uint256",
          "name": "",
          "type": "uint256"
        }
      ],
      "stateMutability": "view",
      "type": "function"
    },
    {
      "inputs": [
        {
          "internalType": "uint256",
          "name": "amount",
          "type": "uint256"
        }
      ],
      "name": "withdraw",
      "outputs": [],
      "stateMutability": "nonpayable",
      "type": "function"
    }
  ],
  "transactionHash": "0x91b9aed72ac0e36aa30c622a505672d9d794e55f1380ad9110cdfdf0cbc3c7e0",
  "args": [
    "0x69Bdb276A17Dd90F9D3A545944CCB20E593ae8E3",
    "0x8771c0a0f8Ff0aC5147fF062BBB0F23E8bE2fd5C",
    "0x64cf6e538ce757645a953376c0f1be6fab8a2e09",
    "2592000"
  ],
  "solcInputHash": "0bbfe742aa9ae68c98f1b46eec70d410",
  "bytecode": "0x60806040526000600455600060055534801561001a57600080fd5b5060405161126e38038061126e8339818101604052608081101561003d57600080fd5b5080516020820151604083015160609093015160018055600280546001600160a01b039384166001600160a01b03199182161790915560038054958416958216959095179094556000805492909316919093161790556006556111c9806100a56000396000f3fe608060405234801561001057600080fd5b50600436106101365760003560e01c806372f702f3116100b8578063c8f33c911161007c578063c8f33c911461029a578063cd3daf9d146102a2578063d1af0c7d146102aa578063df136d65146102b2578063e9fad8ee146102ba578063ebe2b12b146102c257610136565b806372f702f31461023f5780637b0a47ee1461024757806380faa57d1461024f5780638b87634714610257578063a694fc3a1461027d57610136565b8063386a9525116100ff578063386a9525146101c85780633c6b16ab146101d05780633d18b912146101ed5780633fc6df6e146101f557806370a082311461021957610136565b80628cc2621461013b5780630700037d1461017357806318160ddd146101995780631c1f78eb146101a15780632e1a7d4d146101a9575b600080fd5b6101616004803603602081101561015157600080fd5b50356001600160a01b03166102ca565b60408051918252519081900360200190f35b6101616004803603602081101561018957600080fd5b50356001600160a01b0316610360565b610161610372565b610161610379565b6101c6600480360360208110156101bf57600080fd5b5035610397565b005b610161610538565b6101c6600480360360208110156101e657600080fd5b503561053e565b6101c661078f565b6101fd6108c5565b604080516001600160a01b039092168252519081900360200190f35b6101616004803603602081101561022f57600080fd5b50356001600160a01b03166108d4565b6101fd6108ef565b6101616108fe565b610161610904565b6101616004803603602081101561026d57600080fd5b50356001600160a01b0316610912565b6101c66004803603602081101561029357600080fd5b5035610924565b610161610ac3565b610161610ac9565b6101fd610b23565b610161610b32565b6101c6610b38565b610161610b5b565b6001600160a01b0381166000908152600a6020908152604080832054600990925282205461035a919061034e90670de0b6b3a7640000906103429061031d90610311610ac9565b9063ffffffff610b6116565b6001600160a01b0388166000908152600c60205260409020549063ffffffff610baa16565b9063ffffffff610c0316565b9063ffffffff610c4516565b92915050565b600a6020526000908152604090205481565b600b545b90565b6000610392600654600554610baa90919063ffffffff16565b905090565b600260015414156103ef576040805162461bcd60e51b815260206004820152601f60248201527f5265656e7472616e637947756172643a207265656e7472616e742063616c6c00604482015290519081900360640190fd5b6002600155336103fd610ac9565b600855610408610904565b6007556001600160a01b0381161561044f57610423816102ca565b6001600160a01b0382166000908152600a60209081526040808320939093556008546009909152919020555b60008211610498576040805162461bcd60e51b8152602060048201526011602482015270043616e6e6f74207769746864726177203607c1b604482015290519081900360640190fd5b600b546104ab908363ffffffff610b6116565b600b55336000908152600c60205260409020546104ce908363ffffffff610b6116565b336000818152600c60205260409020919091556003546104fa916001600160a01b039091169084610c9f565b60408051838152905133917f7084f5476618d8e60b11ef0d7d3f06914655adb8793e28ff7f018d4c76d505d5919081900360200190a2505060018055565b60065481565b6000546001600160a01b031633146105875760405162461bcd60e51b815260040180806020018281038252602a815260200180611140602a913960400191505060405180910390fd5b6000610591610ac9565b60085561059c610904565b6007556001600160a01b038116156105e3576105b7816102ca565b6001600160a01b0382166000908152600a60209081526040808320939093556008546009909152919020555b60045442106106085760065461060090839063ffffffff610c0316565b600555610657565b60045460009061061e904263ffffffff610b6116565b9050600061063760055483610baa90919063ffffffff16565b60065490915061065190610342868463ffffffff610c4516565b60055550505b600254604080516370a0823160e01b815230600482015290516000926001600160a01b0316916370a08231916024808301926020929190829003018186803b1580156106a257600080fd5b505afa1580156106b6573d6000803e3d6000fd5b505050506040513d60208110156106cc57600080fd5b50516006549091506106e590829063ffffffff610c0316565b600554111561073b576040805162461bcd60e51b815260206004820152601860248201527f50726f76696465642072657761726420746f6f20686967680000000000000000604482015290519081900360640190fd5b426007819055600654610754919063ffffffff610c4516565b6004556040805184815290517fde88a922e0d3b88b24e9623efeb464919c6bf9f66857a65e2bfcf2ce87a9433d9181900360200190a1505050565b600260015414156107e7576040805162461bcd60e51b815260206004820152601f60248201527f5265656e7472616e637947756172643a207265656e7472616e742063616c6c00604482015290519081900360640190fd5b6002600155336107f5610ac9565b600855610800610904565b6007556001600160a01b038116156108475761081b816102ca565b6001600160a01b0382166000908152600a60209081526040808320939093556008546009909152919020555b336000908152600a602052604090205480156108bd57336000818152600a6020526040812055600254610886916001600160a01b039091169083610c9f565b60408051828152905133917fe2403640ba68fed3a2f88b7557551d1993f84b99bb10ff833f0cf8db0c5e0486919081900360200190a25b505060018055565b6000546001600160a01b031681565b6001600160a01b03166000908152600c602052604090205490565b6003546001600160a01b031681565b60055481565b600061039242600454610cf6565b60096020526000908152604090205481565b6002600154141561097c576040805162461bcd60e51b815260206004820152601f60248201527f5265656e7472616e637947756172643a207265656e7472616e742063616c6c00604482015290519081900360640190fd5b60026001553361098a610ac9565b600855610995610904565b6007556001600160a01b038116156109dc576109b0816102ca565b6001600160a01b0382166000908152600a60209081526040808320939093556008546009909152919020555b60008211610a22576040805162461bcd60e51b815260206004820152600e60248201526d043616e6e6f74207374616b6520360941b604482015290519081900360640190fd5b600b54610a35908363ffffffff610c4516565b600b55336000908152600c6020526040902054610a58908363ffffffff610c4516565b336000818152600c6020526040902091909155600354610a85916001600160a01b03909116903085610d0c565b60408051838152905133917f9e71bc8eea02a63969f509818f2dafb9254532904319f9dbda79b67bd34a5f3d919081900360200190a2505060018055565b60075481565b6000600b5460001415610adf5750600854610376565b610392610b14600b54610342670de0b6b3a7640000610b08600554610b08600754610311610904565b9063ffffffff610baa16565b6008549063ffffffff610c4516565b6002546001600160a01b031681565b60085481565b336000908152600c6020526040902054610b5190610397565b610b5961078f565b565b60045481565b6000610ba383836040518060400160405280601e81526020017f536166654d6174683a207375627472616374696f6e206f766572666c6f770000815250610d6c565b9392505050565b600082610bb95750600061035a565b82820282848281610bc657fe5b0414610ba35760405162461bcd60e51b815260040180806020018281038252602181526020018061111f6021913960400191505060405180910390fd5b6000610ba383836040518060400160405280601a81526020017f536166654d6174683a206469766973696f6e206279207a65726f000000000000815250610e03565b600082820183811015610ba3576040805162461bcd60e51b815260206004820152601b60248201527f536166654d6174683a206164646974696f6e206f766572666c6f770000000000604482015290519081900360640190fd5b604080516001600160a01b038416602482015260448082018490528251808303909101815260649091019091526020810180516001600160e01b031663a9059cbb60e01b179052610cf1908490610e68565b505050565b6000818310610d055781610ba3565b5090919050565b604080516001600160a01b0380861660248301528416604482015260648082018490528251808303909101815260849091019091526020810180516001600160e01b03166323b872dd60e01b179052610d66908590610e68565b50505050565b60008184841115610dfb5760405162461bcd60e51b81526004018080602001828103825283818151815260200191508051906020019080838360005b83811015610dc0578181015183820152602001610da8565b50505050905090810190601f168015610ded5780820380516001836020036101000a031916815260200191505b509250505060405180910390fd5b505050900390565b60008183610e525760405162461bcd60e51b8152602060048201818152835160248401528351909283926044909101919085019080838360008315610dc0578181015183820152602001610da8565b506000838581610e5e57fe5b0495945050505050565b6060610ebd826040518060400160405280602081526020017f5361666545524332303a206c6f772d6c6576656c2063616c6c206661696c6564815250856001600160a01b0316610f199092919063ffffffff16565b805190915015610cf157808060200190516020811015610edc57600080fd5b5051610cf15760405162461bcd60e51b815260040180806020018281038252602a81526020018061116a602a913960400191505060405180910390fd5b6060610f288484600085610f30565b949350505050565b606082471015610f715760405162461bcd60e51b81526004018080602001828103825260268152602001806110f96026913960400191505060405180910390fd5b610f7a8561108c565b610fcb576040805162461bcd60e51b815260206004820152601d60248201527f416464726573733a2063616c6c20746f206e6f6e2d636f6e7472616374000000604482015290519081900360640190fd5b60006060866001600160a01b031685876040518082805190602001908083835b6020831061100a5780518252601f199092019160209182019101610feb565b6001836020036101000a03801982511681845116808217855250505050505090500191505060006040518083038185875af1925050503d806000811461106c576040519150601f19603f3d011682016040523d82523d6000602084013e611071565b606091505b5091509150611081828286611092565b979650505050505050565b3b151590565b606083156110a1575081610ba3565b8251156110b15782518084602001fd5b60405162461bcd60e51b8152602060048201818152845160248401528451859391928392604401919085019080838360008315610dc0578181015183820152602001610da856fe416464726573733a20696e73756666696369656e742062616c616e636520666f722063616c6c536166654d6174683a206d756c7469706c69636174696f6e206f766572666c6f7743616c6c6572206973206e6f742052657761726473446973747269627574696f6e20636f6e74726163745361666545524332303a204552433230206f7065726174696f6e20646964206e6f742073756363656564a2646970667358221220a0a5d5ce1f09dd810f60a4300c862c41dc7a8ea9933c60b7e5ea5820f1997a8264736f6c634300060a0033",
  "devdoc": {
    "methods": {}
  },
  "userdoc": {
    "methods": {}
  },
  "storageLayout": {
    "storage": [
      {
        "astId": 6325,
        "contract": "contracts/staking/StakingRewardsV2.sol:StakingRewardsV2",
        "label": "rewardsDistribution",
        "offset": 0,
        "slot": "0",
        "type": "t_address"
      },
      {
        "astId": 1699,
        "contract": "contracts/staking/StakingRewardsV2.sol:StakingRewardsV2",
        "label": "_status",
        "offset": 0,
        "slot": "1",
        "type": "t_uint256"
      },
      {
        "astId": 6873,
        "contract": "contracts/staking/StakingRewardsV2.sol:StakingRewardsV2",
        "label": "rewardsToken",
        "offset": 0,
        "slot": "2",
        "type": "t_contract(IERC20)1231"
      },
      {
        "astId": 6875,
        "contract": "contracts/staking/StakingRewardsV2.sol:StakingRewardsV2",
        "label": "stakingToken",
        "offset": 0,
        "slot": "3",
        "type": "t_contract(IERC20)1231"
      },
      {
        "astId": 6878,
        "contract": "contracts/staking/StakingRewardsV2.sol:StakingRewardsV2",
        "label": "periodFinish",
        "offset": 0,
        "slot": "4",
        "type": "t_uint256"
      },
      {
        "astId": 6881,
        "contract": "contracts/staking/StakingRewardsV2.sol:StakingRewardsV2",
        "label": "rewardRate",
        "offset": 0,
        "slot": "5",
        "type": "t_uint256"
      },
      {
        "astId": 6883,
        "contract": "contracts/staking/StakingRewardsV2.sol:StakingRewardsV2",
        "label": "rewardsDuration",
        "offset": 0,
        "slot": "6",
        "type": "t_uint256"
      },
      {
        "astId": 6885,
        "contract": "contracts/staking/StakingRewardsV2.sol:StakingRewardsV2",
        "label": "lastUpdateTime",
        "offset": 0,
        "slot": "7",
        "type": "t_uint256"
      },
      {
        "astId": 6887,
        "contract": "contracts/staking/StakingRewardsV2.sol:StakingRewardsV2",
        "label": "rewardPerTokenStored",
        "offset": 0,
        "slot": "8",
        "type": "t_uint256"
      },
      {
        "astId": 6891,
        "contract": "contracts/staking/StakingRewardsV2.sol:StakingRewardsV2",
        "label": "userRewardPerTokenPaid",
        "offset": 0,
        "slot": "9",
        "type": "t_mapping(t_address,t_uint256)"
      },
      {
        "astId": 6895,
        "contract": "contracts/staking/StakingRewardsV2.sol:StakingRewardsV2",
        "label": "rewards",
        "offset": 0,
        "slot": "10",
        "type": "t_mapping(t_address,t_uint256)"
      },
      {
        "astId": 6897,
        "contract": "contracts/staking/StakingRewardsV2.sol:StakingRewardsV2",
        "label": "_totalSupply",
        "offset": 0,
        "slot": "11",
        "type": "t_uint256"
      },
      {
        "astId": 6901,
        "contract": "contracts/staking/StakingRewardsV2.sol:StakingRewardsV2",
        "label": "_balances",
        "offset": 0,
        "slot": "12",
        "type": "t_mapping(t_address,t_uint256)"
      }
    ],
    "types": {
      "t_address": {
        "encoding": "inplace",
        "label": "address",
        "numberOfBytes": "20"
      },
      "t_contract(IERC20)1231": {
        "encoding": "inplace",
        "label": "contract IERC20",
        "numberOfBytes": "20"
      },
      "t_mapping(t_address,t_uint256)": {
        "encoding": "mapping",
        "key": "t_address",
        "label": "mapping(address => uint256)",
        "numberOfBytes": "32",
        "value": "t_uint256"
      },
      "t_uint256": {
        "encoding": "inplace",
        "label": "uint256",
        "numberOfBytes": "32"
      }
    }
  }
}